{
	"data": {
		"bytecode": {
			"linkReferences": {},
			"object": "60806040523480156200001157600080fd5b5060018060008060068111156200002d576200002c620001f1565b5b6006811115620000425762000041620001f1565b5b81526020019081526020016000208190555060026001600060016006811115620000715762000070620001f1565b5b6006811115620000865762000085620001f1565b5b81526020019081526020016000208190555060046001600060026006811115620000b557620000b4620001f1565b5b6006811115620000ca57620000c9620001f1565b5b81526020019081526020016000208190555060086001600060036006811115620000f957620000f8620001f1565b5b60068111156200010e576200010d620001f1565b5b815260200190815260200160002081905550601060016000600460068111156200013d576200013c620001f1565b5b6006811115620001525762000151620001f1565b5b81526020019081526020016000208190555060206001600060056006811115620001815762000180620001f1565b5b6006811115620001965762000195620001f1565b5b815260200190815260200160002081905550604060016000600680811115620001c457620001c3620001f1565b5b6006811115620001d957620001d8620001f1565b5b81526020019081526020016000208190555062000220565b7f4e487b7100000000000000000000000000000000000000000000000000000000600052602160045260246000fd5b612d1780620002306000396000f3fe60806040526004361061009c5760003560e01c806382b562aa1161006457806382b562aa146101d25780638f8d7f991461020f578063af99c6331461024c578063c783fe2514610289578063d614cdb8146102b9578063f2c31ff4146102f75761009c565b80630a284cb6146100a157806318370d34146100de5780633b3bff0f1461011b578063593d6e82146101585780637c41ad2c14610195575b600080fd5b3480156100ad57600080fd5b506100c860048036038101906100c3919061181e565b610335565b6040516100d59190611896565b60405180910390f35b3480156100ea57600080fd5b5061010560048036038101906101009190611df7565b6103b7565b6040516101129190611e6c565b60405180910390f35b34801561012757600080fd5b50610142600480360381019061013d9190611e87565b6104cf565b60405161014f9190611e6c565b60405180910390f35b34801561016457600080fd5b5061017f600480360381019061017a9190611eb4565b6105e4565b60405161018c9190611e6c565b60405180910390f35b3480156101a157600080fd5b506101bc60048036038101906101b79190611e87565b6106fc565b6040516101c99190611e6c565b60405180910390f35b3480156101de57600080fd5b506101f960048036038101906101f49190611ef4565b610811565b6040516102069190611e6c565b60405180910390f35b34801561021b57600080fd5b5061023660048036038101906102319190611f47565b610873565b6040516102439190611896565b60405180910390f35b34801561025857600080fd5b50610273600480360381019061026e9190611f47565b61098b565b6040516102809190611896565b60405180910390f35b6102a3600480360381019061029e9190611f87565b610aa3565b6040516102b09190612065565b60405180910390f35b3480156102c557600080fd5b506102e060048036038101906102db9190611e87565b610c3a565b6040516102ee9291906120e0565b60405180910390f35b34801561030357600080fd5b5061031e60048036038101906103199190611f47565b610d6a565b60405161032c929190612118565b60405180910390f35b600080600061034685600086610e8f565b9250509150601660030b8214610391576040517f08c379a0000000000000000000000000000000000000000000000000000000008152600401610388906121c4565b60405180910390fd5b806000815181106103a5576103a46121e4565b5b60200260200101519250505092915050565b600080600061016773ffffffffffffffffffffffffffffffffffffffff166318370d3460e01b86866040516024016103f09291906125b5565b604051602081830303815290604052907bffffffffffffffffffffffffffffffffffffffffffffffffffffffff19166020820180517bffffffffffffffffffffffffffffffffffffffffffffffffffffffff838183161783525050505060405161045a9190612621565b6000604051808303816000865af19150503d8060008114610497576040519150601f19603f3d011682016040523d82523d6000602084013e61049c565b606091505b5091509150816104ad5760156104c2565b808060200190518101906104c19190612671565b5b60030b9250505092915050565b600080600061016773ffffffffffffffffffffffffffffffffffffffff16633b3bff0f60e01b856040516024016105069190612065565b604051602081830303815290604052907bffffffffffffffffffffffffffffffffffffffffffffffffffffffff19166020820180517bffffffffffffffffffffffffffffffffffffffffffffffffffffffff83818316178352505050506040516105709190612621565b6000604051808303816000865af19150503d80600081146105ad576040519150601f19603f3d011682016040523d82523d6000602084013e6105b2565b606091505b5091509150816105c35760156105d8565b808060200190518101906105d79190612671565b5b60030b92505050919050565b600080600061016773ffffffffffffffffffffffffffffffffffffffff1663593d6e8260e01b868660405160240161061d92919061269e565b604051602081830303815290604052907bffffffffffffffffffffffffffffffffffffffffffffffffffffffff19166020820180517bffffffffffffffffffffffffffffffffffffffffffffffffffffffff83818316178352505050506040516106879190612621565b6000604051808303816000865af19150503d80600081146106c4576040519150601f19603f3d011682016040523d82523d6000602084013e6106c9565b606091505b5091509150816106da5760156106ef565b808060200190518101906106ee9190612671565b5b60030b9250505092915050565b600080600061016773ffffffffffffffffffffffffffffffffffffffff16637c41ad2c60e01b856040516024016107339190612065565b604051602081830303815290604052907bffffffffffffffffffffffffffffffffffffffffffffffffffffffff19166020820180517bffffffffffffffffffffffffffffffffffffffffffffffffffffffff838183161783525050505060405161079d9190612621565b6000604051808303816000865af19150503d80600081146107da576040519150601f19603f3d011682016040523d82523d6000602084013e6107df565b606091505b5091509150816107f0576015610805565b808060200190518101906108049190612671565b5b60030b92505050919050565b60008061082085308686611007565b9050601660030b8114610868576040517f08c379a000000000000000000000000000000000000000000000000000000000815260040161085f90612739565b60405180910390fd5b809150509392505050565b600080600061016773ffffffffffffffffffffffffffffffffffffffff16638f8d7f9960e01b86866040516024016108ac929190612759565b604051602081830303815290604052907bffffffffffffffffffffffffffffffffffffffffffffffffffffffff19166020820180517bffffffffffffffffffffffffffffffffffffffffffffffffffffffff83818316178352505050506040516109169190612621565b6000604051808303816000865af19150503d8060008114610953576040519150601f19603f3d011682016040523d82523d6000602084013e610958565b606091505b50915091508161096957601561097e565b8080602001905181019061097d9190612671565b5b60030b9250505092915050565b600080600061016773ffffffffffffffffffffffffffffffffffffffff1663af99c63360e01b86866040516024016109c4929190612759565b604051602081830303815290604052907bffffffffffffffffffffffffffffffffffffffffffffffffffffffff19166020820180517bffffffffffffffffffffffffffffffffffffffffffffffffffffffff8381831617835250505050604051610a2e9190612621565b6000604051808303816000865af19150503d8060008114610a6b576040519150601f19603f3d011682016040523d82523d6000602084013e610a70565b606091505b509150915081610a81576015610a96565b80806020019051810190610a959190612671565b5b60030b9250505092915050565b600080600167ffffffffffffffff811115610ac157610ac0611608565b5b604051908082528060200260200182016040528015610afa57816020015b610ae7611451565b815260200190600190039081610adf5790505b509050610b0a6004600130611125565b81600081518110610b1e57610b1d6121e4565b5b6020026020010181905250610b31611471565b87816000018190525086816020018190525085816060018190525030816040019073ffffffffffffffffffffffffffffffffffffffff16908173ffffffffffffffffffffffffffffffffffffffff16815250506001816080019015159081151581525050848160a0019060070b908160070b81525050818160e0018190525060008160c0019015159081151581525050610bcb308561115c565b816101000181905250600080610be0836111ba565b91509150601660030b8214610c2a576040517f08c379a0000000000000000000000000000000000000000000000000000000008152600401610c21906127f4565b60405180910390fd5b8094505050505095945050505050565b6000610c446114e0565b60008061016773ffffffffffffffffffffffffffffffffffffffff1663d614cdb860e01b86604051602401610c799190612065565b604051602081830303815290604052907bffffffffffffffffffffffffffffffffffffffffffffffffffffffff19166020820180517bffffffffffffffffffffffffffffffffffffffffffffffffffffffff8381831617835250505050604051610ce39190612621565b6000604051808303816000865af19150503d8060008114610d20576040519150601f19603f3d011682016040523d82523d6000602084013e610d25565b606091505b5091509150610d326114e0565b82610d3f57601581610d54565b81806020019051810190610d5391906128a2565b5b8160030b91508095508196505050505050915091565b60008060008061016773ffffffffffffffffffffffffffffffffffffffff1663f2c31ff460e01b8787604051602401610da4929190612759565b604051602081830303815290604052907bffffffffffffffffffffffffffffffffffffffffffffffffffffffff19166020820180517bffffffffffffffffffffffffffffffffffffffffffffffffffffffff8381831617835250505050604051610e0e9190612621565b6000604051808303816000865af19150503d8060008114610e4b576040519150601f19603f3d011682016040523d82523d6000602084013e610e50565b606091505b509150915081610e635760156000610e78565b80806020019051810190610e7791906128f7565b5b8160030b9150809450819550505050509250929050565b600080606060008061016773ffffffffffffffffffffffffffffffffffffffff1663278e0b8860e01b898989604051602401610ecd93929190612a1c565b604051602081830303815290604052907bffffffffffffffffffffffffffffffffffffffffffffffffffffffff19166020820180517bffffffffffffffffffffffffffffffffffffffffffffffffffffffff8381831617835250505050604051610f379190612621565b6000604051808303816000865af19150503d8060008114610f74576040519150601f19603f3d011682016040523d82523d6000602084013e610f79565b606091505b509150915081610fd557601560008067ffffffffffffffff811115610fa157610fa0611608565b5b604051908082528060200260200182016040528015610fcf5781602001602082028036833780820191505090505b50610fea565b80806020019051810190610fe99190612b5e565b5b8260030b9250809550819650829750505050505093509350939050565b600080600061016773ffffffffffffffffffffffffffffffffffffffff16635cfc901160e01b888888886040516024016110449493929190612bcd565b604051602081830303815290604052907bffffffffffffffffffffffffffffffffffffffffffffffffffffffff19166020820180517bffffffffffffffffffffffffffffffffffffffffffffffffffffffff83818316178352505050506040516110ae9190612621565b6000604051808303816000865af19150503d80600081146110eb576040519150601f19603f3d011682016040523d82523d6000602084013e6110f0565b606091505b509150915081611101576015611116565b808060200190518101906111159190612671565b5b60030b92505050949350505050565b61112d611451565b604051806040016040528061114186611332565b81526020016111508585611373565b81525090509392505050565b6111646114e0565b82816020019073ffffffffffffffffffffffffffffffffffffffff16908173ffffffffffffffffffffffffffffffffffffffff168152505081816040019063ffffffff16908163ffffffff168152505092915050565b6000808260008161010001516000015163ffffffff161480156111ec575060008161010001516040015163ffffffff16145b15611212576276a7008161010001516040019063ffffffff16908163ffffffff16815250505b60008061016773ffffffffffffffffffffffffffffffffffffffff1634639c89bb3560e01b886040516024016112489190612c12565b604051602081830303815290604052907bffffffffffffffffffffffffffffffffffffffffffffffffffffffff19166020820180517bffffffffffffffffffffffffffffffffffffffffffffffffffffffff83818316178352505050506040516112b29190612621565b60006040518083038185875af1925050503d80600081146112ef576040519150601f19603f3d011682016040523d82523d6000602084013e6112f4565b606091505b509150915081611307576015600061131c565b8080602001905181019061131b9190612c72565b5b8160030b91508095508196505050505050915091565b60006001600083600681111561134b5761134a612cb2565b5b600681111561135d5761135c612cb2565b5b8152602001908152602001600020549050919050565b61137b611523565b6001600481111561138f5761138e612cb2565b5b8360048111156113a2576113a1612cb2565b5b14156113e55781816020019073ffffffffffffffffffffffffffffffffffffffff16908173ffffffffffffffffffffffffffffffffffffffff168152505061144b565b6004808111156113f8576113f7612cb2565b5b83600481111561140b5761140a612cb2565b5b141561144a5781816080019073ffffffffffffffffffffffffffffffffffffffff16908173ffffffffffffffffffffffffffffffffffffffff16815250505b5b92915050565b60405180604001604052806000815260200161146b611523565b81525090565b6040518061012001604052806060815260200160608152602001600073ffffffffffffffffffffffffffffffffffffffff16815260200160608152602001600015158152602001600060070b8152602001600015158152602001606081526020016114da6114e0565b81525090565b6040518060600160405280600063ffffffff168152602001600073ffffffffffffffffffffffffffffffffffffffff168152602001600063ffffffff1681525090565b6040518060a00160405280600015158152602001600073ffffffffffffffffffffffffffffffffffffffff1681526020016060815260200160608152602001600073ffffffffffffffffffffffffffffffffffffffff1681525090565b6000604051905090565b600080fd5b600080fd5b600073ffffffffffffffffffffffffffffffffffffffff82169050919050565b60006115bf82611594565b9050919050565b6115cf816115b4565b81146115da57600080fd5b50565b6000813590506115ec816115c6565b92915050565b600080fd5b6000601f19601f8301169050919050565b7f4e487b7100000000000000000000000000000000000000000000000000000000600052604160045260246000fd5b611640826115f7565b810181811067ffffffffffffffff8211171561165f5761165e611608565b5b80604052505050565b6000611672611580565b905061167e8282611637565b919050565b600067ffffffffffffffff82111561169e5761169d611608565b5b602082029050602081019050919050565b600080fd5b600080fd5b600067ffffffffffffffff8211156116d4576116d3611608565b5b6116dd826115f7565b9050602081019050919050565b82818337600083830152505050565b600061170c611707846116b9565b611668565b905082815260208101848484011115611728576117276116b4565b5b6117338482856116ea565b509392505050565b600082601f8301126117505761174f6115f2565b5b81356117608482602086016116f9565b91505092915050565b600061177c61177784611683565b611668565b9050808382526020820190506020840283018581111561179f5761179e6116af565b5b835b818110156117e657803567ffffffffffffffff8111156117c4576117c36115f2565b5b8086016117d1898261173b565b855260208501945050506020810190506117a1565b5050509392505050565b600082601f830112611805576118046115f2565b5b8135611815848260208601611769565b91505092915050565b600080604083850312156118355761183461158a565b5b6000611843858286016115dd565b925050602083013567ffffffffffffffff8111156118645761186361158f565b5b611870858286016117f0565b9150509250929050565b60008160070b9050919050565b6118908161187a565b82525050565b60006020820190506118ab6000830184611887565b92915050565b600080fd5b600080fd5b600067ffffffffffffffff8211156118d6576118d5611608565b5b6118df826115f7565b9050602081019050919050565b60006118ff6118fa846118bb565b611668565b90508281526020810184848401111561191b5761191a6116b4565b5b6119268482856116ea565b509392505050565b600082601f830112611943576119426115f2565b5b81356119538482602086016118ec565b91505092915050565b60008115159050919050565b6119718161195c565b811461197c57600080fd5b50565b60008135905061198e81611968565b92915050565b61199d8161187a565b81146119a857600080fd5b50565b6000813590506119ba81611994565b92915050565b600067ffffffffffffffff8211156119db576119da611608565b5b602082029050602081019050919050565b6000819050919050565b6119ff816119ec565b8114611a0a57600080fd5b50565b600081359050611a1c816119f6565b92915050565b600060a08284031215611a3857611a376118b1565b5b611a4260a0611668565b90506000611a528482850161197f565b6000830152506020611a66848285016115dd565b602083015250604082013567ffffffffffffffff811115611a8a57611a896118b6565b5b611a968482850161173b565b604083015250606082013567ffffffffffffffff811115611aba57611ab96118b6565b5b611ac68482850161173b565b6060830152506080611ada848285016115dd565b60808301525092915050565b600060408284031215611afc57611afb6118b1565b5b611b066040611668565b90506000611b1684828501611a0d565b600083015250602082013567ffffffffffffffff811115611b3a57611b396118b6565b5b611b4684828501611a22565b60208301525092915050565b6000611b65611b60846119c0565b611668565b90508083825260208201905060208402830185811115611b8857611b876116af565b5b835b81811015611bcf57803567ffffffffffffffff811115611bad57611bac6115f2565b5b808601611bba8982611ae6565b85526020850194505050602081019050611b8a565b5050509392505050565b600082601f830112611bee57611bed6115f2565b5b8135611bfe848260208601611b52565b91505092915050565b600063ffffffff82169050919050565b611c2081611c07565b8114611c2b57600080fd5b50565b600081359050611c3d81611c17565b92915050565b600060608284031215611c5957611c586118b1565b5b611c636060611668565b90506000611c7384828501611c2e565b6000830152506020611c87848285016115dd565b6020830152506040611c9b84828501611c2e565b60408301525092915050565b60006101608284031215611cbe57611cbd6118b1565b5b611cc9610120611668565b9050600082013567ffffffffffffffff811115611ce957611ce86118b6565b5b611cf58482850161192e565b600083015250602082013567ffffffffffffffff811115611d1957611d186118b6565b5b611d258482850161192e565b6020830152506040611d39848285016115dd565b604083015250606082013567ffffffffffffffff811115611d5d57611d5c6118b6565b5b611d698482850161192e565b6060830152506080611d7d8482850161197f565b60808301525060a0611d91848285016119ab565b60a08301525060c0611da58482850161197f565b60c08301525060e082013567ffffffffffffffff811115611dc957611dc86118b6565b5b611dd584828501611bd9565b60e083015250610100611dea84828501611c43565b6101008301525092915050565b60008060408385031215611e0e57611e0d61158a565b5b6000611e1c858286016115dd565b925050602083013567ffffffffffffffff811115611e3d57611e3c61158f565b5b611e4985828601611ca7565b9150509250929050565b6000819050919050565b611e6681611e53565b82525050565b6000602082019050611e816000830184611e5d565b92915050565b600060208284031215611e9d57611e9c61158a565b5b6000611eab848285016115dd565b91505092915050565b60008060808385031215611ecb57611eca61158a565b5b6000611ed9858286016115dd565b9250506020611eea85828601611c43565b9150509250929050565b600080600060608486031215611f0d57611f0c61158a565b5b6000611f1b868287016115dd565b9350506020611f2c868287016115dd565b9250506040611f3d868287016119ab565b9150509250925092565b60008060408385031215611f5e57611f5d61158a565b5b6000611f6c858286016115dd565b9250506020611f7d858286016115dd565b9150509250929050565b600080600080600060a08688031215611fa357611fa261158a565b5b600086013567ffffffffffffffff811115611fc157611fc061158f565b5b611fcd8882890161192e565b955050602086013567ffffffffffffffff811115611fee57611fed61158f565b5b611ffa8882890161192e565b945050604086013567ffffffffffffffff81111561201b5761201a61158f565b5b6120278882890161192e565b9350506060612038888289016119ab565b925050608061204988828901611c2e565b9150509295509295909350565b61205f816115b4565b82525050565b600060208201905061207a6000830184612056565b92915050565b61208981611c07565b82525050565b612098816115b4565b82525050565b6060820160008201516120b46000850182612080565b5060208201516120c7602085018261208f565b5060408201516120da6040850182612080565b50505050565b60006080820190506120f56000830185611e5d565b612102602083018461209e565b9392505050565b6121128161195c565b82525050565b600060408201905061212d6000830185611887565b61213a6020830184612109565b9392505050565b600082825260208201905092915050565b7f4661696c656420746f206d696e74206e6f6e2d66756e6769626c6520746f6b6560008201527f6e00000000000000000000000000000000000000000000000000000000000000602082015250565b60006121ae602183612141565b91506121b982612152565b604082019050919050565b600060208201905081810360008301526121dd816121a1565b9050919050565b7f4e487b7100000000000000000000000000000000000000000000000000000000600052603260045260246000fd5b600081519050919050565b600082825260208201905092915050565b60005b8381101561224d578082015181840152602081019050612232565b8381111561225c576000848401525b50505050565b600061226d82612213565b612277818561221e565b935061228781856020860161222f565b612290816115f7565b840191505092915050565b6122a48161195c565b82525050565b6122b38161187a565b82525050565b600081519050919050565b600082825260208201905092915050565b6000819050602082019050919050565b6122ee816119ec565b82525050565b600081519050919050565b600082825260208201905092915050565b600061231b826122f4565b61232581856122ff565b935061233581856020860161222f565b61233e816115f7565b840191505092915050565b600060a083016000830151612361600086018261229b565b506020830151612374602086018261208f565b506040830151848203604086015261238c8282612310565b915050606083015184820360608601526123a68282612310565b91505060808301516123bb608086018261208f565b508091505092915050565b60006040830160008301516123de60008601826122e5565b50602083015184820360208601526123f68282612349565b9150508091505092915050565b600061240f83836123c6565b905092915050565b6000602082019050919050565b600061242f826122b9565b61243981856122c4565b93508360208202850161244b856122d5565b8060005b8581101561248757848403895281516124688582612403565b945061247383612417565b925060208a0199505060018101905061244f565b50829750879550505050505092915050565b6060820160008201516124af6000850182612080565b5060208201516124c2602085018261208f565b5060408201516124d56040850182612080565b50505050565b60006101608301600083015184820360008601526124f98282612262565b915050602083015184820360208601526125138282612262565b9150506040830151612528604086018261208f565b50606083015184820360608601526125408282612262565b9150506080830151612555608086018261229b565b5060a083015161256860a08601826122aa565b5060c083015161257b60c086018261229b565b5060e083015184820360e08601526125938282612424565b9150506101008301516125aa610100860182612499565b508091505092915050565b60006040820190506125ca6000830185612056565b81810360208301526125dc81846124db565b90509392505050565b600081905092915050565b60006125fb826122f4565b61260581856125e5565b935061261581856020860161222f565b80840191505092915050565b600061262d82846125f0565b915081905092915050565b60008160030b9050919050565b61264e81612638565b811461265957600080fd5b50565b60008151905061266b81612645565b92915050565b6000602082840312156126875761268661158a565b5b60006126958482850161265c565b91505092915050565b60006080820190506126b36000830185612056565b6126c0602083018461209e565b9392505050565b7f4661696c656420746f207472616e73666572206e6f6e2d66756e6769626c652060008201527f746f6b656e000000000000000000000000000000000000000000000000000000602082015250565b6000612723602583612141565b915061272e826126c7565b604082019050919050565b6000602082019050818103600083015261275281612716565b9050919050565b600060408201905061276e6000830185612056565b61277b6020830184612056565b9392505050565b7f4661696c656420746f20637265617465206e6f6e2d66756e6769626c6520746f60008201527f6b656e0000000000000000000000000000000000000000000000000000000000602082015250565b60006127de602383612141565b91506127e982612782565b604082019050919050565b6000602082019050818103600083015261280d816127d1565b9050919050565b60008151905061282381611c17565b92915050565b600081519050612838816115c6565b92915050565b600060608284031215612854576128536118b1565b5b61285e6060611668565b9050600061286e84828501612814565b600083015250602061288284828501612829565b602083015250604061289684828501612814565b60408301525092915050565b600080608083850312156128b9576128b861158a565b5b60006128c78582860161265c565b92505060206128d88582860161283e565b9150509250929050565b6000815190506128f181611968565b92915050565b6000806040838503121561290e5761290d61158a565b5b600061291c8582860161265c565b925050602061292d858286016128e2565b9150509250929050565b600067ffffffffffffffff82169050919050565b61295481612937565b82525050565b600081519050919050565b600082825260208201905092915050565b6000819050602082019050919050565b60006129928383612310565b905092915050565b6000602082019050919050565b60006129b28261295a565b6129bc8185612965565b9350836020820285016129ce85612976565b8060005b85811015612a0a57848403895281516129eb8582612986565b94506129f68361299a565b925060208a019950506001810190506129d2565b50829750879550505050505092915050565b6000606082019050612a316000830186612056565b612a3e602083018561294b565b8181036040830152612a5081846129a7565b9050949350505050565b612a6381612937565b8114612a6e57600080fd5b50565b600081519050612a8081612a5a565b92915050565b600067ffffffffffffffff821115612aa157612aa0611608565b5b602082029050602081019050919050565b600081519050612ac181611994565b92915050565b6000612ada612ad584612a86565b611668565b90508083825260208201905060208402830185811115612afd57612afc6116af565b5b835b81811015612b265780612b128882612ab2565b845260208401935050602081019050612aff565b5050509392505050565b600082601f830112612b4557612b446115f2565b5b8151612b55848260208601612ac7565b91505092915050565b600080600060608486031215612b7757612b7661158a565b5b6000612b858682870161265c565b9350506020612b9686828701612a71565b925050604084015167ffffffffffffffff811115612bb757612bb661158f565b5b612bc386828701612b30565b9150509250925092565b6000608082019050612be26000830187612056565b612bef6020830186612056565b612bfc6040830185612056565b612c096060830184611887565b95945050505050565b60006020820190508181036000830152612c2c81846124db565b905092915050565b6000612c3f82611594565b9050919050565b612c4f81612c34565b8114612c5a57600080fd5b50565b600081519050612c6c81612c46565b92915050565b60008060408385031215612c8957612c8861158a565b5b6000612c978582860161265c565b9250506020612ca885828601612c5d565b9150509250929050565b7f4e487b7100000000000000000000000000000000000000000000000000000000600052602160045260246000fdfea2646970667358221220eec2467573ad33940a1df3f1810505adfc6a181f7b2f959350d8861b6358814264736f6c63430008080033",
			"opcodes": "PUSH1 0x80 PUSH1 0x40 MSTORE CALLVALUE DUP1 ISZERO PUSH3 0x11 JUMPI PUSH1 0x0 DUP1 REVERT JUMPDEST POP PUSH1 0x1 DUP1 PUSH1 0x0 DUP1 PUSH1 0x6 DUP2 GT ISZERO PUSH3 0x2D JUMPI PUSH3 0x2C PUSH3 0x1F1 JUMP JUMPDEST JUMPDEST PUSH1 0x6 DUP2 GT ISZERO PUSH3 0x42 JUMPI PUSH3 0x41 PUSH3 0x1F1 JUMP JUMPDEST JUMPDEST DUP2 MSTORE PUSH1 0x20 ADD SWAP1 DUP2 MSTORE PUSH1 0x20 ADD PUSH1 0x0 KECCAK256 DUP2 SWAP1 SSTORE POP PUSH1 0x2 PUSH1 0x1 PUSH1 0x0 PUSH1 0x1 PUSH1 0x6 DUP2 GT ISZERO PUSH3 0x71 JUMPI PUSH3 0x70 PUSH3 0x1F1 JUMP JUMPDEST JUMPDEST PUSH1 0x6 DUP2 GT ISZERO PUSH3 0x86 JUMPI PUSH3 0x85 PUSH3 0x1F1 JUMP JUMPDEST JUMPDEST DUP2 MSTORE PUSH1 0x20 ADD SWAP1 DUP2 MSTORE PUSH1 0x20 ADD PUSH1 0x0 KECCAK256 DUP2 SWAP1 SSTORE POP PUSH1 0x4 PUSH1 0x1 PUSH1 0x0 PUSH1 0x2 PUSH1 0x6 DUP2 GT ISZERO PUSH3 0xB5 JUMPI PUSH3 0xB4 PUSH3 0x1F1 JUMP JUMPDEST JUMPDEST PUSH1 0x6 DUP2 GT ISZERO PUSH3 0xCA JUMPI PUSH3 0xC9 PUSH3 0x1F1 JUMP JUMPDEST JUMPDEST DUP2 MSTORE PUSH1 0x20 ADD SWAP1 DUP2 MSTORE PUSH1 0x20 ADD PUSH1 0x0 KECCAK256 DUP2 SWAP1 SSTORE POP PUSH1 0x8 PUSH1 0x1 PUSH1 0x0 PUSH1 0x3 PUSH1 0x6 DUP2 GT ISZERO PUSH3 0xF9 JUMPI PUSH3 0xF8 PUSH3 0x1F1 JUMP JUMPDEST JUMPDEST PUSH1 0x6 DUP2 GT ISZERO PUSH3 0x10E JUMPI PUSH3 0x10D PUSH3 0x1F1 JUMP JUMPDEST JUMPDEST DUP2 MSTORE PUSH1 0x20 ADD SWAP1 DUP2 MSTORE PUSH1 0x20 ADD PUSH1 0x0 KECCAK256 DUP2 SWAP1 SSTORE POP PUSH1 0x10 PUSH1 0x1 PUSH1 0x0 PUSH1 0x4 PUSH1 0x6 DUP2 GT ISZERO PUSH3 0x13D JUMPI PUSH3 0x13C PUSH3 0x1F1 JUMP JUMPDEST JUMPDEST PUSH1 0x6 DUP2 GT ISZERO PUSH3 0x152 JUMPI PUSH3 0x151 PUSH3 0x1F1 JUMP JUMPDEST JUMPDEST DUP2 MSTORE PUSH1 0x20 ADD SWAP1 DUP2 MSTORE PUSH1 0x20 ADD PUSH1 0x0 KECCAK256 DUP2 SWAP1 SSTORE POP PUSH1 0x20 PUSH1 0x1 PUSH1 0x0 PUSH1 0x5 PUSH1 0x6 DUP2 GT ISZERO PUSH3 0x181 JUMPI PUSH3 0x180 PUSH3 0x1F1 JUMP JUMPDEST JUMPDEST PUSH1 0x6 DUP2 GT ISZERO PUSH3 0x196 JUMPI PUSH3 0x195 PUSH3 0x1F1 JUMP JUMPDEST JUMPDEST DUP2 MSTORE PUSH1 0x20 ADD SWAP1 DUP2 MSTORE PUSH1 0x20 ADD PUSH1 0x0 KECCAK256 DUP2 SWAP1 SSTORE POP PUSH1 0x40 PUSH1 0x1 PUSH1 0x0 PUSH1 0x6 DUP1 DUP2 GT ISZERO PUSH3 0x1C4 JUMPI PUSH3 0x1C3 PUSH3 0x1F1 JUMP JUMPDEST JUMPDEST PUSH1 0x6 DUP2 GT ISZERO PUSH3 0x1D9 JUMPI PUSH3 0x1D8 PUSH3 0x1F1 JUMP JUMPDEST JUMPDEST DUP2 MSTORE PUSH1 0x20 ADD SWAP1 DUP2 MSTORE PUSH1 0x20 ADD PUSH1 0x0 KECCAK256 DUP2 SWAP1 SSTORE POP PUSH3 0x220 JUMP JUMPDEST PUSH32 0x4E487B7100000000000000000000000000000000000000000000000000000000 PUSH1 0x0 MSTORE PUSH1 0x21 PUSH1 0x4 MSTORE PUSH1 0x24 PUSH1 0x0 REVERT JUMPDEST PUSH2 0x2D17 DUP1 PUSH3 0x230 PUSH1 0x0 CODECOPY PUSH1 0x0 RETURN INVALID PUSH1 0x80 PUSH1 0x40 MSTORE PUSH1 0x4 CALLDATASIZE LT PUSH2 0x9C JUMPI PUSH1 0x0 CALLDATALOAD PUSH1 0xE0 SHR DUP1 PUSH4 0x82B562AA GT PUSH2 0x64 JUMPI DUP1 PUSH4 0x82B562AA EQ PUSH2 0x1D2 JUMPI DUP1 PUSH4 0x8F8D7F99 EQ PUSH2 0x20F JUMPI DUP1 PUSH4 0xAF99C633 EQ PUSH2 0x24C JUMPI DUP1 PUSH4 0xC783FE25 EQ PUSH2 0x289 JUMPI DUP1 PUSH4 0xD614CDB8 EQ PUSH2 0x2B9 JUMPI DUP1 PUSH4 0xF2C31FF4 EQ PUSH2 0x2F7 JUMPI PUSH2 0x9C JUMP JUMPDEST DUP1 PUSH4 0xA284CB6 EQ PUSH2 0xA1 JUMPI DUP1 PUSH4 0x18370D34 EQ PUSH2 0xDE JUMPI DUP1 PUSH4 0x3B3BFF0F EQ PUSH2 0x11B JUMPI DUP1 PUSH4 0x593D6E82 EQ PUSH2 0x158 JUMPI DUP1 PUSH4 0x7C41AD2C EQ PUSH2 0x195 JUMPI JUMPDEST PUSH1 0x0 DUP1 REVERT JUMPDEST CALLVALUE DUP1 ISZERO PUSH2 0xAD JUMPI PUSH1 0x0 DUP1 REVERT JUMPDEST POP PUSH2 0xC8 PUSH1 0x4 DUP1 CALLDATASIZE SUB DUP2 ADD SWAP1 PUSH2 0xC3 SWAP2 SWAP1 PUSH2 0x181E JUMP JUMPDEST PUSH2 0x335 JUMP JUMPDEST PUSH1 0x40 MLOAD PUSH2 0xD5 SWAP2 SWAP1 PUSH2 0x1896 JUMP JUMPDEST PUSH1 0x40 MLOAD DUP1 SWAP2 SUB SWAP1 RETURN JUMPDEST CALLVALUE DUP1 ISZERO PUSH2 0xEA JUMPI PUSH1 0x0 DUP1 REVERT JUMPDEST POP PUSH2 0x105 PUSH1 0x4 DUP1 CALLDATASIZE SUB DUP2 ADD SWAP1 PUSH2 0x100 SWAP2 SWAP1 PUSH2 0x1DF7 JUMP JUMPDEST PUSH2 0x3B7 JUMP JUMPDEST PUSH1 0x40 MLOAD PUSH2 0x112 SWAP2 SWAP1 PUSH2 0x1E6C JUMP JUMPDEST PUSH1 0x40 MLOAD DUP1 SWAP2 SUB SWAP1 RETURN JUMPDEST CALLVALUE DUP1 ISZERO PUSH2 0x127 JUMPI PUSH1 0x0 DUP1 REVERT JUMPDEST POP PUSH2 0x142 PUSH1 0x4 DUP1 CALLDATASIZE SUB DUP2 ADD SWAP1 PUSH2 0x13D SWAP2 SWAP1 PUSH2 0x1E87 JUMP JUMPDEST PUSH2 0x4CF JUMP JUMPDEST PUSH1 0x40 MLOAD PUSH2 0x14F SWAP2 SWAP1 PUSH2 0x1E6C JUMP JUMPDEST PUSH1 0x40 MLOAD DUP1 SWAP2 SUB SWAP1 RETURN JUMPDEST CALLVALUE DUP1 ISZERO PUSH2 0x164 JUMPI PUSH1 0x0 DUP1 REVERT JUMPDEST POP PUSH2 0x17F PUSH1 0x4 DUP1 CALLDATASIZE SUB DUP2 ADD SWAP1 PUSH2 0x17A SWAP2 SWAP1 PUSH2 0x1EB4 JUMP JUMPDEST PUSH2 0x5E4 JUMP JUMPDEST PUSH1 0x40 MLOAD PUSH2 0x18C SWAP2 SWAP1 PUSH2 0x1E6C JUMP JUMPDEST PUSH1 0x40 MLOAD DUP1 SWAP2 SUB SWAP1 RETURN JUMPDEST CALLVALUE DUP1 ISZERO PUSH2 0x1A1 JUMPI PUSH1 0x0 DUP1 REVERT JUMPDEST POP PUSH2 0x1BC PUSH1 0x4 DUP1 CALLDATASIZE SUB DUP2 ADD SWAP1 PUSH2 0x1B7 SWAP2 SWAP1 PUSH2 0x1E87 JUMP JUMPDEST PUSH2 0x6FC JUMP JUMPDEST PUSH1 0x40 MLOAD PUSH2 0x1C9 SWAP2 SWAP1 PUSH2 0x1E6C JUMP JUMPDEST PUSH1 0x40 MLOAD DUP1 SWAP2 SUB SWAP1 RETURN JUMPDEST CALLVALUE DUP1 ISZERO PUSH2 0x1DE JUMPI PUSH1 0x0 DUP1 REVERT JUMPDEST POP PUSH2 0x1F9 PUSH1 0x4 DUP1 CALLDATASIZE SUB DUP2 ADD SWAP1 PUSH2 0x1F4 SWAP2 SWAP1 PUSH2 0x1EF4 JUMP JUMPDEST PUSH2 0x811 JUMP JUMPDEST PUSH1 0x40 MLOAD PUSH2 0x206 SWAP2 SWAP1 PUSH2 0x1E6C JUMP JUMPDEST PUSH1 0x40 MLOAD DUP1 SWAP2 SUB SWAP1 RETURN JUMPDEST CALLVALUE DUP1 ISZERO PUSH2 0x21B JUMPI PUSH1 0x0 DUP1 REVERT JUMPDEST POP PUSH2 0x236 PUSH1 0x4 DUP1 CALLDATASIZE SUB DUP2 ADD SWAP1 PUSH2 0x231 SWAP2 SWAP1 PUSH2 0x1F47 JUMP JUMPDEST PUSH2 0x873 JUMP JUMPDEST PUSH1 0x40 MLOAD PUSH2 0x243 SWAP2 SWAP1 PUSH2 0x1896 JUMP JUMPDEST PUSH1 0x40 MLOAD DUP1 SWAP2 SUB SWAP1 RETURN JUMPDEST CALLVALUE DUP1 ISZERO PUSH2 0x258 JUMPI PUSH1 0x0 DUP1 REVERT JUMPDEST POP PUSH2 0x273 PUSH1 0x4 DUP1 CALLDATASIZE SUB DUP2 ADD SWAP1 PUSH2 0x26E SWAP2 SWAP1 PUSH2 0x1F47 JUMP JUMPDEST PUSH2 0x98B JUMP JUMPDEST PUSH1 0x40 MLOAD PUSH2 0x280 SWAP2 SWAP1 PUSH2 0x1896 JUMP JUMPDEST PUSH1 0x40 MLOAD DUP1 SWAP2 SUB SWAP1 RETURN JUMPDEST PUSH2 0x2A3 PUSH1 0x4 DUP1 CALLDATASIZE SUB DUP2 ADD SWAP1 PUSH2 0x29E SWAP2 SWAP1 PUSH2 0x1F87 JUMP JUMPDEST PUSH2 0xAA3 JUMP JUMPDEST PUSH1 0x40 MLOAD PUSH2 0x2B0 SWAP2 SWAP1 PUSH2 0x2065 JUMP JUMPDEST PUSH1 0x40 MLOAD DUP1 SWAP2 SUB SWAP1 RETURN JUMPDEST CALLVALUE DUP1 ISZERO PUSH2 0x2C5 JUMPI PUSH1 0x0 DUP1 REVERT JUMPDEST POP PUSH2 0x2E0 PUSH1 0x4 DUP1 CALLDATASIZE SUB DUP2 ADD SWAP1 PUSH2 0x2DB SWAP2 SWAP1 PUSH2 0x1E87 JUMP JUMPDEST PUSH2 0xC3A JUMP JUMPDEST PUSH1 0x40 MLOAD PUSH2 0x2EE SWAP3 SWAP2 SWAP1 PUSH2 0x20E0 JUMP JUMPDEST PUSH1 0x40 MLOAD DUP1 SWAP2 SUB SWAP1 RETURN JUMPDEST CALLVALUE DUP1 ISZERO PUSH2 0x303 JUMPI PUSH1 0x0 DUP1 REVERT JUMPDEST POP PUSH2 0x31E PUSH1 0x4 DUP1 CALLDATASIZE SUB DUP2 ADD SWAP1 PUSH2 0x319 SWAP2 SWAP1 PUSH2 0x1F47 JUMP JUMPDEST PUSH2 0xD6A JUMP JUMPDEST PUSH1 0x40 MLOAD PUSH2 0x32C SWAP3 SWAP2 SWAP1 PUSH2 0x2118 JUMP JUMPDEST PUSH1 0x40 MLOAD DUP1 SWAP2 SUB SWAP1 RETURN JUMPDEST PUSH1 0x0 DUP1 PUSH1 0x0 PUSH2 0x346 DUP6 PUSH1 0x0 DUP7 PUSH2 0xE8F JUMP JUMPDEST SWAP3 POP POP SWAP2 POP PUSH1 0x16 PUSH1 0x3 SIGNEXTEND DUP3 EQ PUSH2 0x391 JUMPI PUSH1 0x40 MLOAD PUSH32 0x8C379A000000000000000000000000000000000000000000000000000000000 DUP2 MSTORE PUSH1 0x4 ADD PUSH2 0x388 SWAP1 PUSH2 0x21C4 JUMP JUMPDEST PUSH1 0x40 MLOAD DUP1 SWAP2 SUB SWAP1 REVERT JUMPDEST DUP1 PUSH1 0x0 DUP2 MLOAD DUP2 LT PUSH2 0x3A5 JUMPI PUSH2 0x3A4 PUSH2 0x21E4 JUMP JUMPDEST JUMPDEST PUSH1 0x20 MUL PUSH1 0x20 ADD ADD MLOAD SWAP3 POP POP POP SWAP3 SWAP2 POP POP JUMP JUMPDEST PUSH1 0x0 DUP1 PUSH1 0x0 PUSH2 0x167 PUSH20 0xFFFFFFFFFFFFFFFFFFFFFFFFFFFFFFFFFFFFFFFF AND PUSH4 0x18370D34 PUSH1 0xE0 SHL DUP7 DUP7 PUSH1 0x40 MLOAD PUSH1 0x24 ADD PUSH2 0x3F0 SWAP3 SWAP2 SWAP1 PUSH2 0x25B5 JUMP JUMPDEST PUSH1 0x40 MLOAD PUSH1 0x20 DUP2 DUP4 SUB SUB DUP2 MSTORE SWAP1 PUSH1 0x40 MSTORE SWAP1 PUSH28 0xFFFFFFFFFFFFFFFFFFFFFFFFFFFFFFFFFFFFFFFFFFFFFFFFFFFFFFFF NOT AND PUSH1 0x20 DUP3 ADD DUP1 MLOAD PUSH28 0xFFFFFFFFFFFFFFFFFFFFFFFFFFFFFFFFFFFFFFFFFFFFFFFFFFFFFFFF DUP4 DUP2 DUP4 AND OR DUP4 MSTORE POP POP POP POP PUSH1 0x40 MLOAD PUSH2 0x45A SWAP2 SWAP1 PUSH2 0x2621 JUMP JUMPDEST PUSH1 0x0 PUSH1 0x40 MLOAD DUP1 DUP4 SUB DUP2 PUSH1 0x0 DUP7 GAS CALL SWAP2 POP POP RETURNDATASIZE DUP1 PUSH1 0x0 DUP2 EQ PUSH2 0x497 JUMPI PUSH1 0x40 MLOAD SWAP2 POP PUSH1 0x1F NOT PUSH1 0x3F RETURNDATASIZE ADD AND DUP3 ADD PUSH1 0x40 MSTORE RETURNDATASIZE DUP3 MSTORE RETURNDATASIZE PUSH1 0x0 PUSH1 0x20 DUP5 ADD RETURNDATACOPY PUSH2 0x49C JUMP JUMPDEST PUSH1 0x60 SWAP2 POP JUMPDEST POP SWAP2 POP SWAP2 POP DUP2 PUSH2 0x4AD JUMPI PUSH1 0x15 PUSH2 0x4C2 JUMP JUMPDEST DUP1 DUP1 PUSH1 0x20 ADD SWAP1 MLOAD DUP2 ADD SWAP1 PUSH2 0x4C1 SWAP2 SWAP1 PUSH2 0x2671 JUMP JUMPDEST JUMPDEST PUSH1 0x3 SIGNEXTEND SWAP3 POP POP POP SWAP3 SWAP2 POP POP JUMP JUMPDEST PUSH1 0x0 DUP1 PUSH1 0x0 PUSH2 0x167 PUSH20 0xFFFFFFFFFFFFFFFFFFFFFFFFFFFFFFFFFFFFFFFF AND PUSH4 0x3B3BFF0F PUSH1 0xE0 SHL DUP6 PUSH1 0x40 MLOAD PUSH1 0x24 ADD PUSH2 0x506 SWAP2 SWAP1 PUSH2 0x2065 JUMP JUMPDEST PUSH1 0x40 MLOAD PUSH1 0x20 DUP2 DUP4 SUB SUB DUP2 MSTORE SWAP1 PUSH1 0x40 MSTORE SWAP1 PUSH28 0xFFFFFFFFFFFFFFFFFFFFFFFFFFFFFFFFFFFFFFFFFFFFFFFFFFFFFFFF NOT AND PUSH1 0x20 DUP3 ADD DUP1 MLOAD PUSH28 0xFFFFFFFFFFFFFFFFFFFFFFFFFFFFFFFFFFFFFFFFFFFFFFFFFFFFFFFF DUP4 DUP2 DUP4 AND OR DUP4 MSTORE POP POP POP POP PUSH1 0x40 MLOAD PUSH2 0x570 SWAP2 SWAP1 PUSH2 0x2621 JUMP JUMPDEST PUSH1 0x0 PUSH1 0x40 MLOAD DUP1 DUP4 SUB DUP2 PUSH1 0x0 DUP7 GAS CALL SWAP2 POP POP RETURNDATASIZE DUP1 PUSH1 0x0 DUP2 EQ PUSH2 0x5AD JUMPI PUSH1 0x40 MLOAD SWAP2 POP PUSH1 0x1F NOT PUSH1 0x3F RETURNDATASIZE ADD AND DUP3 ADD PUSH1 0x40 MSTORE RETURNDATASIZE DUP3 MSTORE RETURNDATASIZE PUSH1 0x0 PUSH1 0x20 DUP5 ADD RETURNDATACOPY PUSH2 0x5B2 JUMP JUMPDEST PUSH1 0x60 SWAP2 POP JUMPDEST POP SWAP2 POP SWAP2 POP DUP2 PUSH2 0x5C3 JUMPI PUSH1 0x15 PUSH2 0x5D8 JUMP JUMPDEST DUP1 DUP1 PUSH1 0x20 ADD SWAP1 MLOAD DUP2 ADD SWAP1 PUSH2 0x5D7 SWAP2 SWAP1 PUSH2 0x2671 JUMP JUMPDEST JUMPDEST PUSH1 0x3 SIGNEXTEND SWAP3 POP POP POP SWAP2 SWAP1 POP JUMP JUMPDEST PUSH1 0x0 DUP1 PUSH1 0x0 PUSH2 0x167 PUSH20 0xFFFFFFFFFFFFFFFFFFFFFFFFFFFFFFFFFFFFFFFF AND PUSH4 0x593D6E82 PUSH1 0xE0 SHL DUP7 DUP7 PUSH1 0x40 MLOAD PUSH1 0x24 ADD PUSH2 0x61D SWAP3 SWAP2 SWAP1 PUSH2 0x269E JUMP JUMPDEST PUSH1 0x40 MLOAD PUSH1 0x20 DUP2 DUP4 SUB SUB DUP2 MSTORE SWAP1 PUSH1 0x40 MSTORE SWAP1 PUSH28 0xFFFFFFFFFFFFFFFFFFFFFFFFFFFFFFFFFFFFFFFFFFFFFFFFFFFFFFFF NOT AND PUSH1 0x20 DUP3 ADD DUP1 MLOAD PUSH28 0xFFFFFFFFFFFFFFFFFFFFFFFFFFFFFFFFFFFFFFFFFFFFFFFFFFFFFFFF DUP4 DUP2 DUP4 AND OR DUP4 MSTORE POP POP POP POP PUSH1 0x40 MLOAD PUSH2 0x687 SWAP2 SWAP1 PUSH2 0x2621 JUMP JUMPDEST PUSH1 0x0 PUSH1 0x40 MLOAD DUP1 DUP4 SUB DUP2 PUSH1 0x0 DUP7 GAS CALL SWAP2 POP POP RETURNDATASIZE DUP1 PUSH1 0x0 DUP2 EQ PUSH2 0x6C4 JUMPI PUSH1 0x40 MLOAD SWAP2 POP PUSH1 0x1F NOT PUSH1 0x3F RETURNDATASIZE ADD AND DUP3 ADD PUSH1 0x40 MSTORE RETURNDATASIZE DUP3 MSTORE RETURNDATASIZE PUSH1 0x0 PUSH1 0x20 DUP5 ADD RETURNDATACOPY PUSH2 0x6C9 JUMP JUMPDEST PUSH1 0x60 SWAP2 POP JUMPDEST POP SWAP2 POP SWAP2 POP DUP2 PUSH2 0x6DA JUMPI PUSH1 0x15 PUSH2 0x6EF JUMP JUMPDEST DUP1 DUP1 PUSH1 0x20 ADD SWAP1 MLOAD DUP2 ADD SWAP1 PUSH2 0x6EE SWAP2 SWAP1 PUSH2 0x2671 JUMP JUMPDEST JUMPDEST PUSH1 0x3 SIGNEXTEND SWAP3 POP POP POP SWAP3 SWAP2 POP POP JUMP JUMPDEST PUSH1 0x0 DUP1 PUSH1 0x0 PUSH2 0x167 PUSH20 0xFFFFFFFFFFFFFFFFFFFFFFFFFFFFFFFFFFFFFFFF AND PUSH4 0x7C41AD2C PUSH1 0xE0 SHL DUP6 PUSH1 0x40 MLOAD PUSH1 0x24 ADD PUSH2 0x733 SWAP2 SWAP1 PUSH2 0x2065 JUMP JUMPDEST PUSH1 0x40 MLOAD PUSH1 0x20 DUP2 DUP4 SUB SUB DUP2 MSTORE SWAP1 PUSH1 0x40 MSTORE SWAP1 PUSH28 0xFFFFFFFFFFFFFFFFFFFFFFFFFFFFFFFFFFFFFFFFFFFFFFFFFFFFFFFF NOT AND PUSH1 0x20 DUP3 ADD DUP1 MLOAD PUSH28 0xFFFFFFFFFFFFFFFFFFFFFFFFFFFFFFFFFFFFFFFFFFFFFFFFFFFFFFFF DUP4 DUP2 DUP4 AND OR DUP4 MSTORE POP POP POP POP PUSH1 0x40 MLOAD PUSH2 0x79D SWAP2 SWAP1 PUSH2 0x2621 JUMP JUMPDEST PUSH1 0x0 PUSH1 0x40 MLOAD DUP1 DUP4 SUB DUP2 PUSH1 0x0 DUP7 GAS CALL SWAP2 POP POP RETURNDATASIZE DUP1 PUSH1 0x0 DUP2 EQ PUSH2 0x7DA JUMPI PUSH1 0x40 MLOAD SWAP2 POP PUSH1 0x1F NOT PUSH1 0x3F RETURNDATASIZE ADD AND DUP3 ADD PUSH1 0x40 MSTORE RETURNDATASIZE DUP3 MSTORE RETURNDATASIZE PUSH1 0x0 PUSH1 0x20 DUP5 ADD RETURNDATACOPY PUSH2 0x7DF JUMP JUMPDEST PUSH1 0x60 SWAP2 POP JUMPDEST POP SWAP2 POP SWAP2 POP DUP2 PUSH2 0x7F0 JUMPI PUSH1 0x15 PUSH2 0x805 JUMP JUMPDEST DUP1 DUP1 PUSH1 0x20 ADD SWAP1 MLOAD DUP2 ADD SWAP1 PUSH2 0x804 SWAP2 SWAP1 PUSH2 0x2671 JUMP JUMPDEST JUMPDEST PUSH1 0x3 SIGNEXTEND SWAP3 POP POP POP SWAP2 SWAP1 POP JUMP JUMPDEST PUSH1 0x0 DUP1 PUSH2 0x820 DUP6 ADDRESS DUP7 DUP7 PUSH2 0x1007 JUMP JUMPDEST SWAP1 POP PUSH1 0x16 PUSH1 0x3 SIGNEXTEND DUP2 EQ PUSH2 0x868 JUMPI PUSH1 0x40 MLOAD PUSH32 0x8C379A000000000000000000000000000000000000000000000000000000000 DUP2 MSTORE PUSH1 0x4 ADD PUSH2 0x85F SWAP1 PUSH2 0x2739 JUMP JUMPDEST PUSH1 0x40 MLOAD DUP1 SWAP2 SUB SWAP1 REVERT JUMPDEST DUP1 SWAP2 POP POP SWAP4 SWAP3 POP POP POP JUMP JUMPDEST PUSH1 0x0 DUP1 PUSH1 0x0 PUSH2 0x167 PUSH20 0xFFFFFFFFFFFFFFFFFFFFFFFFFFFFFFFFFFFFFFFF AND PUSH4 0x8F8D7F99 PUSH1 0xE0 SHL DUP7 DUP7 PUSH1 0x40 MLOAD PUSH1 0x24 ADD PUSH2 0x8AC SWAP3 SWAP2 SWAP1 PUSH2 0x2759 JUMP JUMPDEST PUSH1 0x40 MLOAD PUSH1 0x20 DUP2 DUP4 SUB SUB DUP2 MSTORE SWAP1 PUSH1 0x40 MSTORE SWAP1 PUSH28 0xFFFFFFFFFFFFFFFFFFFFFFFFFFFFFFFFFFFFFFFFFFFFFFFFFFFFFFFF NOT AND PUSH1 0x20 DUP3 ADD DUP1 MLOAD PUSH28 0xFFFFFFFFFFFFFFFFFFFFFFFFFFFFFFFFFFFFFFFFFFFFFFFFFFFFFFFF DUP4 DUP2 DUP4 AND OR DUP4 MSTORE POP POP POP POP PUSH1 0x40 MLOAD PUSH2 0x916 SWAP2 SWAP1 PUSH2 0x2621 JUMP JUMPDEST PUSH1 0x0 PUSH1 0x40 MLOAD DUP1 DUP4 SUB DUP2 PUSH1 0x0 DUP7 GAS CALL SWAP2 POP POP RETURNDATASIZE DUP1 PUSH1 0x0 DUP2 EQ PUSH2 0x953 JUMPI PUSH1 0x40 MLOAD SWAP2 POP PUSH1 0x1F NOT PUSH1 0x3F RETURNDATASIZE ADD AND DUP3 ADD PUSH1 0x40 MSTORE RETURNDATASIZE DUP3 MSTORE RETURNDATASIZE PUSH1 0x0 PUSH1 0x20 DUP5 ADD RETURNDATACOPY PUSH2 0x958 JUMP JUMPDEST PUSH1 0x60 SWAP2 POP JUMPDEST POP SWAP2 POP SWAP2 POP DUP2 PUSH2 0x969 JUMPI PUSH1 0x15 PUSH2 0x97E JUMP JUMPDEST DUP1 DUP1 PUSH1 0x20 ADD SWAP1 MLOAD DUP2 ADD SWAP1 PUSH2 0x97D SWAP2 SWAP1 PUSH2 0x2671 JUMP JUMPDEST JUMPDEST PUSH1 0x3 SIGNEXTEND SWAP3 POP POP POP SWAP3 SWAP2 POP POP JUMP JUMPDEST PUSH1 0x0 DUP1 PUSH1 0x0 PUSH2 0x167 PUSH20 0xFFFFFFFFFFFFFFFFFFFFFFFFFFFFFFFFFFFFFFFF AND PUSH4 0xAF99C633 PUSH1 0xE0 SHL DUP7 DUP7 PUSH1 0x40 MLOAD PUSH1 0x24 ADD PUSH2 0x9C4 SWAP3 SWAP2 SWAP1 PUSH2 0x2759 JUMP JUMPDEST PUSH1 0x40 MLOAD PUSH1 0x20 DUP2 DUP4 SUB SUB DUP2 MSTORE SWAP1 PUSH1 0x40 MSTORE SWAP1 PUSH28 0xFFFFFFFFFFFFFFFFFFFFFFFFFFFFFFFFFFFFFFFFFFFFFFFFFFFFFFFF NOT AND PUSH1 0x20 DUP3 ADD DUP1 MLOAD PUSH28 0xFFFFFFFFFFFFFFFFFFFFFFFFFFFFFFFFFFFFFFFFFFFFFFFFFFFFFFFF DUP4 DUP2 DUP4 AND OR DUP4 MSTORE POP POP POP POP PUSH1 0x40 MLOAD PUSH2 0xA2E SWAP2 SWAP1 PUSH2 0x2621 JUMP JUMPDEST PUSH1 0x0 PUSH1 0x40 MLOAD DUP1 DUP4 SUB DUP2 PUSH1 0x0 DUP7 GAS CALL SWAP2 POP POP RETURNDATASIZE DUP1 PUSH1 0x0 DUP2 EQ PUSH2 0xA6B JUMPI PUSH1 0x40 MLOAD SWAP2 POP PUSH1 0x1F NOT PUSH1 0x3F RETURNDATASIZE ADD AND DUP3 ADD PUSH1 0x40 MSTORE RETURNDATASIZE DUP3 MSTORE RETURNDATASIZE PUSH1 0x0 PUSH1 0x20 DUP5 ADD RETURNDATACOPY PUSH2 0xA70 JUMP JUMPDEST PUSH1 0x60 SWAP2 POP JUMPDEST POP SWAP2 POP SWAP2 POP DUP2 PUSH2 0xA81 JUMPI PUSH1 0x15 PUSH2 0xA96 JUMP JUMPDEST DUP1 DUP1 PUSH1 0x20 ADD SWAP1 MLOAD DUP2 ADD SWAP1 PUSH2 0xA95 SWAP2 SWAP1 PUSH2 0x2671 JUMP JUMPDEST JUMPDEST PUSH1 0x3 SIGNEXTEND SWAP3 POP POP POP SWAP3 SWAP2 POP POP JUMP JUMPDEST PUSH1 0x0 DUP1 PUSH1 0x1 PUSH8 0xFFFFFFFFFFFFFFFF DUP2 GT ISZERO PUSH2 0xAC1 JUMPI PUSH2 0xAC0 PUSH2 0x1608 JUMP JUMPDEST JUMPDEST PUSH1 0x40 MLOAD SWAP1 DUP1 DUP3 MSTORE DUP1 PUSH1 0x20 MUL PUSH1 0x20 ADD DUP3 ADD PUSH1 0x40 MSTORE DUP1 ISZERO PUSH2 0xAFA JUMPI DUP2 PUSH1 0x20 ADD JUMPDEST PUSH2 0xAE7 PUSH2 0x1451 JUMP JUMPDEST DUP2 MSTORE PUSH1 0x20 ADD SWAP1 PUSH1 0x1 SWAP1 SUB SWAP1 DUP2 PUSH2 0xADF JUMPI SWAP1 POP JUMPDEST POP SWAP1 POP PUSH2 0xB0A PUSH1 0x4 PUSH1 0x1 ADDRESS PUSH2 0x1125 JUMP JUMPDEST DUP2 PUSH1 0x0 DUP2 MLOAD DUP2 LT PUSH2 0xB1E JUMPI PUSH2 0xB1D PUSH2 0x21E4 JUMP JUMPDEST JUMPDEST PUSH1 0x20 MUL PUSH1 0x20 ADD ADD DUP2 SWAP1 MSTORE POP PUSH2 0xB31 PUSH2 0x1471 JUMP JUMPDEST DUP8 DUP2 PUSH1 0x0 ADD DUP2 SWAP1 MSTORE POP DUP7 DUP2 PUSH1 0x20 ADD DUP2 SWAP1 MSTORE POP DUP6 DUP2 PUSH1 0x60 ADD DUP2 SWAP1 MSTORE POP ADDRESS DUP2 PUSH1 0x40 ADD SWAP1 PUSH20 0xFFFFFFFFFFFFFFFFFFFFFFFFFFFFFFFFFFFFFFFF AND SWAP1 DUP2 PUSH20 0xFFFFFFFFFFFFFFFFFFFFFFFFFFFFFFFFFFFFFFFF AND DUP2 MSTORE POP POP PUSH1 0x1 DUP2 PUSH1 0x80 ADD SWAP1 ISZERO ISZERO SWAP1 DUP2 ISZERO ISZERO DUP2 MSTORE POP POP DUP5 DUP2 PUSH1 0xA0 ADD SWAP1 PUSH1 0x7 SIGNEXTEND SWAP1 DUP2 PUSH1 0x7 SIGNEXTEND DUP2 MSTORE POP POP DUP2 DUP2 PUSH1 0xE0 ADD DUP2 SWAP1 MSTORE POP PUSH1 0x0 DUP2 PUSH1 0xC0 ADD SWAP1 ISZERO ISZERO SWAP1 DUP2 ISZERO ISZERO DUP2 MSTORE POP POP PUSH2 0xBCB ADDRESS DUP6 PUSH2 0x115C JUMP JUMPDEST DUP2 PUSH2 0x100 ADD DUP2 SWAP1 MSTORE POP PUSH1 0x0 DUP1 PUSH2 0xBE0 DUP4 PUSH2 0x11BA JUMP JUMPDEST SWAP2 POP SWAP2 POP PUSH1 0x16 PUSH1 0x3 SIGNEXTEND DUP3 EQ PUSH2 0xC2A JUMPI PUSH1 0x40 MLOAD PUSH32 0x8C379A000000000000000000000000000000000000000000000000000000000 DUP2 MSTORE PUSH1 0x4 ADD PUSH2 0xC21 SWAP1 PUSH2 0x27F4 JUMP JUMPDEST PUSH1 0x40 MLOAD DUP1 SWAP2 SUB SWAP1 REVERT JUMPDEST DUP1 SWAP5 POP POP POP POP POP SWAP6 SWAP5 POP POP POP POP POP JUMP JUMPDEST PUSH1 0x0 PUSH2 0xC44 PUSH2 0x14E0 JUMP JUMPDEST PUSH1 0x0 DUP1 PUSH2 0x167 PUSH20 0xFFFFFFFFFFFFFFFFFFFFFFFFFFFFFFFFFFFFFFFF AND PUSH4 0xD614CDB8 PUSH1 0xE0 SHL DUP7 PUSH1 0x40 MLOAD PUSH1 0x24 ADD PUSH2 0xC79 SWAP2 SWAP1 PUSH2 0x2065 JUMP JUMPDEST PUSH1 0x40 MLOAD PUSH1 0x20 DUP2 DUP4 SUB SUB DUP2 MSTORE SWAP1 PUSH1 0x40 MSTORE SWAP1 PUSH28 0xFFFFFFFFFFFFFFFFFFFFFFFFFFFFFFFFFFFFFFFFFFFFFFFFFFFFFFFF NOT AND PUSH1 0x20 DUP3 ADD DUP1 MLOAD PUSH28 0xFFFFFFFFFFFFFFFFFFFFFFFFFFFFFFFFFFFFFFFFFFFFFFFFFFFFFFFF DUP4 DUP2 DUP4 AND OR DUP4 MSTORE POP POP POP POP PUSH1 0x40 MLOAD PUSH2 0xCE3 SWAP2 SWAP1 PUSH2 0x2621 JUMP JUMPDEST PUSH1 0x0 PUSH1 0x40 MLOAD DUP1 DUP4 SUB DUP2 PUSH1 0x0 DUP7 GAS CALL SWAP2 POP POP RETURNDATASIZE DUP1 PUSH1 0x0 DUP2 EQ PUSH2 0xD20 JUMPI PUSH1 0x40 MLOAD SWAP2 POP PUSH1 0x1F NOT PUSH1 0x3F RETURNDATASIZE ADD AND DUP3 ADD PUSH1 0x40 MSTORE RETURNDATASIZE DUP3 MSTORE RETURNDATASIZE PUSH1 0x0 PUSH1 0x20 DUP5 ADD RETURNDATACOPY PUSH2 0xD25 JUMP JUMPDEST PUSH1 0x60 SWAP2 POP JUMPDEST POP SWAP2 POP SWAP2 POP PUSH2 0xD32 PUSH2 0x14E0 JUMP JUMPDEST DUP3 PUSH2 0xD3F JUMPI PUSH1 0x15 DUP2 PUSH2 0xD54 JUMP JUMPDEST DUP2 DUP1 PUSH1 0x20 ADD SWAP1 MLOAD DUP2 ADD SWAP1 PUSH2 0xD53 SWAP2 SWAP1 PUSH2 0x28A2 JUMP JUMPDEST JUMPDEST DUP2 PUSH1 0x3 SIGNEXTEND SWAP2 POP DUP1 SWAP6 POP DUP2 SWAP7 POP POP POP POP POP POP SWAP2 POP SWAP2 JUMP JUMPDEST PUSH1 0x0 DUP1 PUSH1 0x0 DUP1 PUSH2 0x167 PUSH20 0xFFFFFFFFFFFFFFFFFFFFFFFFFFFFFFFFFFFFFFFF AND PUSH4 0xF2C31FF4 PUSH1 0xE0 SHL DUP8 DUP8 PUSH1 0x40 MLOAD PUSH1 0x24 ADD PUSH2 0xDA4 SWAP3 SWAP2 SWAP1 PUSH2 0x2759 JUMP JUMPDEST PUSH1 0x40 MLOAD PUSH1 0x20 DUP2 DUP4 SUB SUB DUP2 MSTORE SWAP1 PUSH1 0x40 MSTORE SWAP1 PUSH28 0xFFFFFFFFFFFFFFFFFFFFFFFFFFFFFFFFFFFFFFFFFFFFFFFFFFFFFFFF NOT AND PUSH1 0x20 DUP3 ADD DUP1 MLOAD PUSH28 0xFFFFFFFFFFFFFFFFFFFFFFFFFFFFFFFFFFFFFFFFFFFFFFFFFFFFFFFF DUP4 DUP2 DUP4 AND OR DUP4 MSTORE POP POP POP POP PUSH1 0x40 MLOAD PUSH2 0xE0E SWAP2 SWAP1 PUSH2 0x2621 JUMP JUMPDEST PUSH1 0x0 PUSH1 0x40 MLOAD DUP1 DUP4 SUB DUP2 PUSH1 0x0 DUP7 GAS CALL SWAP2 POP POP RETURNDATASIZE DUP1 PUSH1 0x0 DUP2 EQ PUSH2 0xE4B JUMPI PUSH1 0x40 MLOAD SWAP2 POP PUSH1 0x1F NOT PUSH1 0x3F RETURNDATASIZE ADD AND DUP3 ADD PUSH1 0x40 MSTORE RETURNDATASIZE DUP3 MSTORE RETURNDATASIZE PUSH1 0x0 PUSH1 0x20 DUP5 ADD RETURNDATACOPY PUSH2 0xE50 JUMP JUMPDEST PUSH1 0x60 SWAP2 POP JUMPDEST POP SWAP2 POP SWAP2 POP DUP2 PUSH2 0xE63 JUMPI PUSH1 0x15 PUSH1 0x0 PUSH2 0xE78 JUMP JUMPDEST DUP1 DUP1 PUSH1 0x20 ADD SWAP1 MLOAD DUP2 ADD SWAP1 PUSH2 0xE77 SWAP2 SWAP1 PUSH2 0x28F7 JUMP JUMPDEST JUMPDEST DUP2 PUSH1 0x3 SIGNEXTEND SWAP2 POP DUP1 SWAP5 POP DUP2 SWAP6 POP POP POP POP POP SWAP3 POP SWAP3 SWAP1 POP JUMP JUMPDEST PUSH1 0x0 DUP1 PUSH1 0x60 PUSH1 0x0 DUP1 PUSH2 0x167 PUSH20 0xFFFFFFFFFFFFFFFFFFFFFFFFFFFFFFFFFFFFFFFF AND PUSH4 0x278E0B88 PUSH1 0xE0 SHL DUP10 DUP10 DUP10 PUSH1 0x40 MLOAD PUSH1 0x24 ADD PUSH2 0xECD SWAP4 SWAP3 SWAP2 SWAP1 PUSH2 0x2A1C JUMP JUMPDEST PUSH1 0x40 MLOAD PUSH1 0x20 DUP2 DUP4 SUB SUB DUP2 MSTORE SWAP1 PUSH1 0x40 MSTORE SWAP1 PUSH28 0xFFFFFFFFFFFFFFFFFFFFFFFFFFFFFFFFFFFFFFFFFFFFFFFFFFFFFFFF NOT AND PUSH1 0x20 DUP3 ADD DUP1 MLOAD PUSH28 0xFFFFFFFFFFFFFFFFFFFFFFFFFFFFFFFFFFFFFFFFFFFFFFFFFFFFFFFF DUP4 DUP2 DUP4 AND OR DUP4 MSTORE POP POP POP POP PUSH1 0x40 MLOAD PUSH2 0xF37 SWAP2 SWAP1 PUSH2 0x2621 JUMP JUMPDEST PUSH1 0x0 PUSH1 0x40 MLOAD DUP1 DUP4 SUB DUP2 PUSH1 0x0 DUP7 GAS CALL SWAP2 POP POP RETURNDATASIZE DUP1 PUSH1 0x0 DUP2 EQ PUSH2 0xF74 JUMPI PUSH1 0x40 MLOAD SWAP2 POP PUSH1 0x1F NOT PUSH1 0x3F RETURNDATASIZE ADD AND DUP3 ADD PUSH1 0x40 MSTORE RETURNDATASIZE DUP3 MSTORE RETURNDATASIZE PUSH1 0x0 PUSH1 0x20 DUP5 ADD RETURNDATACOPY PUSH2 0xF79 JUMP JUMPDEST PUSH1 0x60 SWAP2 POP JUMPDEST POP SWAP2 POP SWAP2 POP DUP2 PUSH2 0xFD5 JUMPI PUSH1 0x15 PUSH1 0x0 DUP1 PUSH8 0xFFFFFFFFFFFFFFFF DUP2 GT ISZERO PUSH2 0xFA1 JUMPI PUSH2 0xFA0 PUSH2 0x1608 JUMP JUMPDEST JUMPDEST PUSH1 0x40 MLOAD SWAP1 DUP1 DUP3 MSTORE DUP1 PUSH1 0x20 MUL PUSH1 0x20 ADD DUP3 ADD PUSH1 0x40 MSTORE DUP1 ISZERO PUSH2 0xFCF JUMPI DUP2 PUSH1 0x20 ADD PUSH1 0x20 DUP3 MUL DUP1 CALLDATASIZE DUP4 CALLDATACOPY DUP1 DUP3 ADD SWAP2 POP POP SWAP1 POP JUMPDEST POP PUSH2 0xFEA JUMP JUMPDEST DUP1 DUP1 PUSH1 0x20 ADD SWAP1 MLOAD DUP2 ADD SWAP1 PUSH2 0xFE9 SWAP2 SWAP1 PUSH2 0x2B5E JUMP JUMPDEST JUMPDEST DUP3 PUSH1 0x3 SIGNEXTEND SWAP3 POP DUP1 SWAP6 POP DUP2 SWAP7 POP DUP3 SWAP8 POP POP POP POP POP POP SWAP4 POP SWAP4 POP SWAP4 SWAP1 POP JUMP JUMPDEST PUSH1 0x0 DUP1 PUSH1 0x0 PUSH2 0x167 PUSH20 0xFFFFFFFFFFFFFFFFFFFFFFFFFFFFFFFFFFFFFFFF AND PUSH4 0x5CFC9011 PUSH1 0xE0 SHL DUP9 DUP9 DUP9 DUP9 PUSH1 0x40 MLOAD PUSH1 0x24 ADD PUSH2 0x1044 SWAP5 SWAP4 SWAP3 SWAP2 SWAP1 PUSH2 0x2BCD JUMP JUMPDEST PUSH1 0x40 MLOAD PUSH1 0x20 DUP2 DUP4 SUB SUB DUP2 MSTORE SWAP1 PUSH1 0x40 MSTORE SWAP1 PUSH28 0xFFFFFFFFFFFFFFFFFFFFFFFFFFFFFFFFFFFFFFFFFFFFFFFFFFFFFFFF NOT AND PUSH1 0x20 DUP3 ADD DUP1 MLOAD PUSH28 0xFFFFFFFFFFFFFFFFFFFFFFFFFFFFFFFFFFFFFFFFFFFFFFFFFFFFFFFF DUP4 DUP2 DUP4 AND OR DUP4 MSTORE POP POP POP POP PUSH1 0x40 MLOAD PUSH2 0x10AE SWAP2 SWAP1 PUSH2 0x2621 JUMP JUMPDEST PUSH1 0x0 PUSH1 0x40 MLOAD DUP1 DUP4 SUB DUP2 PUSH1 0x0 DUP7 GAS CALL SWAP2 POP POP RETURNDATASIZE DUP1 PUSH1 0x0 DUP2 EQ PUSH2 0x10EB JUMPI PUSH1 0x40 MLOAD SWAP2 POP PUSH1 0x1F NOT PUSH1 0x3F RETURNDATASIZE ADD AND DUP3 ADD PUSH1 0x40 MSTORE RETURNDATASIZE DUP3 MSTORE RETURNDATASIZE PUSH1 0x0 PUSH1 0x20 DUP5 ADD RETURNDATACOPY PUSH2 0x10F0 JUMP JUMPDEST PUSH1 0x60 SWAP2 POP JUMPDEST POP SWAP2 POP SWAP2 POP DUP2 PUSH2 0x1101 JUMPI PUSH1 0x15 PUSH2 0x1116 JUMP JUMPDEST DUP1 DUP1 PUSH1 0x20 ADD SWAP1 MLOAD DUP2 ADD SWAP1 PUSH2 0x1115 SWAP2 SWAP1 PUSH2 0x2671 JUMP JUMPDEST JUMPDEST PUSH1 0x3 SIGNEXTEND SWAP3 POP POP POP SWAP5 SWAP4 POP POP POP POP JUMP JUMPDEST PUSH2 0x112D PUSH2 0x1451 JUMP JUMPDEST PUSH1 0x40 MLOAD DUP1 PUSH1 0x40 ADD PUSH1 0x40 MSTORE DUP1 PUSH2 0x1141 DUP7 PUSH2 0x1332 JUMP JUMPDEST DUP2 MSTORE PUSH1 0x20 ADD PUSH2 0x1150 DUP6 DUP6 PUSH2 0x1373 JUMP JUMPDEST DUP2 MSTORE POP SWAP1 POP SWAP4 SWAP3 POP POP POP JUMP JUMPDEST PUSH2 0x1164 PUSH2 0x14E0 JUMP JUMPDEST DUP3 DUP2 PUSH1 0x20 ADD SWAP1 PUSH20 0xFFFFFFFFFFFFFFFFFFFFFFFFFFFFFFFFFFFFFFFF AND SWAP1 DUP2 PUSH20 0xFFFFFFFFFFFFFFFFFFFFFFFFFFFFFFFFFFFFFFFF AND DUP2 MSTORE POP POP DUP2 DUP2 PUSH1 0x40 ADD SWAP1 PUSH4 0xFFFFFFFF AND SWAP1 DUP2 PUSH4 0xFFFFFFFF AND DUP2 MSTORE POP POP SWAP3 SWAP2 POP POP JUMP JUMPDEST PUSH1 0x0 DUP1 DUP3 PUSH1 0x0 DUP2 PUSH2 0x100 ADD MLOAD PUSH1 0x0 ADD MLOAD PUSH4 0xFFFFFFFF AND EQ DUP1 ISZERO PUSH2 0x11EC JUMPI POP PUSH1 0x0 DUP2 PUSH2 0x100 ADD MLOAD PUSH1 0x40 ADD MLOAD PUSH4 0xFFFFFFFF AND EQ JUMPDEST ISZERO PUSH2 0x1212 JUMPI PUSH3 0x76A700 DUP2 PUSH2 0x100 ADD MLOAD PUSH1 0x40 ADD SWAP1 PUSH4 0xFFFFFFFF AND SWAP1 DUP2 PUSH4 0xFFFFFFFF AND DUP2 MSTORE POP POP JUMPDEST PUSH1 0x0 DUP1 PUSH2 0x167 PUSH20 0xFFFFFFFFFFFFFFFFFFFFFFFFFFFFFFFFFFFFFFFF AND CALLVALUE PUSH4 0x9C89BB35 PUSH1 0xE0 SHL DUP9 PUSH1 0x40 MLOAD PUSH1 0x24 ADD PUSH2 0x1248 SWAP2 SWAP1 PUSH2 0x2C12 JUMP JUMPDEST PUSH1 0x40 MLOAD PUSH1 0x20 DUP2 DUP4 SUB SUB DUP2 MSTORE SWAP1 PUSH1 0x40 MSTORE SWAP1 PUSH28 0xFFFFFFFFFFFFFFFFFFFFFFFFFFFFFFFFFFFFFFFFFFFFFFFFFFFFFFFF NOT AND PUSH1 0x20 DUP3 ADD DUP1 MLOAD PUSH28 0xFFFFFFFFFFFFFFFFFFFFFFFFFFFFFFFFFFFFFFFFFFFFFFFFFFFFFFFF DUP4 DUP2 DUP4 AND OR DUP4 MSTORE POP POP POP POP PUSH1 0x40 MLOAD PUSH2 0x12B2 SWAP2 SWAP1 PUSH2 0x2621 JUMP JUMPDEST PUSH1 0x0 PUSH1 0x40 MLOAD DUP1 DUP4 SUB DUP2 DUP6 DUP8 GAS CALL SWAP3 POP POP POP RETURNDATASIZE DUP1 PUSH1 0x0 DUP2 EQ PUSH2 0x12EF JUMPI PUSH1 0x40 MLOAD SWAP2 POP PUSH1 0x1F NOT PUSH1 0x3F RETURNDATASIZE ADD AND DUP3 ADD PUSH1 0x40 MSTORE RETURNDATASIZE DUP3 MSTORE RETURNDATASIZE PUSH1 0x0 PUSH1 0x20 DUP5 ADD RETURNDATACOPY PUSH2 0x12F4 JUMP JUMPDEST PUSH1 0x60 SWAP2 POP JUMPDEST POP SWAP2 POP SWAP2 POP DUP2 PUSH2 0x1307 JUMPI PUSH1 0x15 PUSH1 0x0 PUSH2 0x131C JUMP JUMPDEST DUP1 DUP1 PUSH1 0x20 ADD SWAP1 MLOAD DUP2 ADD SWAP1 PUSH2 0x131B SWAP2 SWAP1 PUSH2 0x2C72 JUMP JUMPDEST JUMPDEST DUP2 PUSH1 0x3 SIGNEXTEND SWAP2 POP DUP1 SWAP6 POP DUP2 SWAP7 POP POP POP POP POP POP SWAP2 POP SWAP2 JUMP JUMPDEST PUSH1 0x0 PUSH1 0x1 PUSH1 0x0 DUP4 PUSH1 0x6 DUP2 GT ISZERO PUSH2 0x134B JUMPI PUSH2 0x134A PUSH2 0x2CB2 JUMP JUMPDEST JUMPDEST PUSH1 0x6 DUP2 GT ISZERO PUSH2 0x135D JUMPI PUSH2 0x135C PUSH2 0x2CB2 JUMP JUMPDEST JUMPDEST DUP2 MSTORE PUSH1 0x20 ADD SWAP1 DUP2 MSTORE PUSH1 0x20 ADD PUSH1 0x0 KECCAK256 SLOAD SWAP1 POP SWAP2 SWAP1 POP JUMP JUMPDEST PUSH2 0x137B PUSH2 0x1523 JUMP JUMPDEST PUSH1 0x1 PUSH1 0x4 DUP2 GT ISZERO PUSH2 0x138F JUMPI PUSH2 0x138E PUSH2 0x2CB2 JUMP JUMPDEST JUMPDEST DUP4 PUSH1 0x4 DUP2 GT ISZERO PUSH2 0x13A2 JUMPI PUSH2 0x13A1 PUSH2 0x2CB2 JUMP JUMPDEST JUMPDEST EQ ISZERO PUSH2 0x13E5 JUMPI DUP2 DUP2 PUSH1 0x20 ADD SWAP1 PUSH20 0xFFFFFFFFFFFFFFFFFFFFFFFFFFFFFFFFFFFFFFFF AND SWAP1 DUP2 PUSH20 0xFFFFFFFFFFFFFFFFFFFFFFFFFFFFFFFFFFFFFFFF AND DUP2 MSTORE POP POP PUSH2 0x144B JUMP JUMPDEST PUSH1 0x4 DUP1 DUP2 GT ISZERO PUSH2 0x13F8 JUMPI PUSH2 0x13F7 PUSH2 0x2CB2 JUMP JUMPDEST JUMPDEST DUP4 PUSH1 0x4 DUP2 GT ISZERO PUSH2 0x140B JUMPI PUSH2 0x140A PUSH2 0x2CB2 JUMP JUMPDEST JUMPDEST EQ ISZERO PUSH2 0x144A JUMPI DUP2 DUP2 PUSH1 0x80 ADD SWAP1 PUSH20 0xFFFFFFFFFFFFFFFFFFFFFFFFFFFFFFFFFFFFFFFF AND SWAP1 DUP2 PUSH20 0xFFFFFFFFFFFFFFFFFFFFFFFFFFFFFFFFFFFFFFFF AND DUP2 MSTORE POP POP JUMPDEST JUMPDEST SWAP3 SWAP2 POP POP JUMP JUMPDEST PUSH1 0x40 MLOAD DUP1 PUSH1 0x40 ADD PUSH1 0x40 MSTORE DUP1 PUSH1 0x0 DUP2 MSTORE PUSH1 0x20 ADD PUSH2 0x146B PUSH2 0x1523 JUMP JUMPDEST DUP2 MSTORE POP SWAP1 JUMP JUMPDEST PUSH1 0x40 MLOAD DUP1 PUSH2 0x120 ADD PUSH1 0x40 MSTORE DUP1 PUSH1 0x60 DUP2 MSTORE PUSH1 0x20 ADD PUSH1 0x60 DUP2 MSTORE PUSH1 0x20 ADD PUSH1 0x0 PUSH20 0xFFFFFFFFFFFFFFFFFFFFFFFFFFFFFFFFFFFFFFFF AND DUP2 MSTORE PUSH1 0x20 ADD PUSH1 0x60 DUP2 MSTORE PUSH1 0x20 ADD PUSH1 0x0 ISZERO ISZERO DUP2 MSTORE PUSH1 0x20 ADD PUSH1 0x0 PUSH1 0x7 SIGNEXTEND DUP2 MSTORE PUSH1 0x20 ADD PUSH1 0x0 ISZERO ISZERO DUP2 MSTORE PUSH1 0x20 ADD PUSH1 0x60 DUP2 MSTORE PUSH1 0x20 ADD PUSH2 0x14DA PUSH2 0x14E0 JUMP JUMPDEST DUP2 MSTORE POP SWAP1 JUMP JUMPDEST PUSH1 0x40 MLOAD DUP1 PUSH1 0x60 ADD PUSH1 0x40 MSTORE DUP1 PUSH1 0x0 PUSH4 0xFFFFFFFF AND DUP2 MSTORE PUSH1 0x20 ADD PUSH1 0x0 PUSH20 0xFFFFFFFFFFFFFFFFFFFFFFFFFFFFFFFFFFFFFFFF AND DUP2 MSTORE PUSH1 0x20 ADD PUSH1 0x0 PUSH4 0xFFFFFFFF AND DUP2 MSTORE POP SWAP1 JUMP JUMPDEST PUSH1 0x40 MLOAD DUP1 PUSH1 0xA0 ADD PUSH1 0x40 MSTORE DUP1 PUSH1 0x0 ISZERO ISZERO DUP2 MSTORE PUSH1 0x20 ADD PUSH1 0x0 PUSH20 0xFFFFFFFFFFFFFFFFFFFFFFFFFFFFFFFFFFFFFFFF AND DUP2 MSTORE PUSH1 0x20 ADD PUSH1 0x60 DUP2 MSTORE PUSH1 0x20 ADD PUSH1 0x60 DUP2 MSTORE PUSH1 0x20 ADD PUSH1 0x0 PUSH20 0xFFFFFFFFFFFFFFFFFFFFFFFFFFFFFFFFFFFFFFFF AND DUP2 MSTORE POP SWAP1 JUMP JUMPDEST PUSH1 0x0 PUSH1 0x40 MLOAD SWAP1 POP SWAP1 JUMP JUMPDEST PUSH1 0x0 DUP1 REVERT JUMPDEST PUSH1 0x0 DUP1 REVERT JUMPDEST PUSH1 0x0 PUSH20 0xFFFFFFFFFFFFFFFFFFFFFFFFFFFFFFFFFFFFFFFF DUP3 AND SWAP1 POP SWAP2 SWAP1 POP JUMP JUMPDEST PUSH1 0x0 PUSH2 0x15BF DUP3 PUSH2 0x1594 JUMP JUMPDEST SWAP1 POP SWAP2 SWAP1 POP JUMP JUMPDEST PUSH2 0x15CF DUP2 PUSH2 0x15B4 JUMP JUMPDEST DUP2 EQ PUSH2 0x15DA JUMPI PUSH1 0x0 DUP1 REVERT JUMPDEST POP JUMP JUMPDEST PUSH1 0x0 DUP2 CALLDATALOAD SWAP1 POP PUSH2 0x15EC DUP2 PUSH2 0x15C6 JUMP JUMPDEST SWAP3 SWAP2 POP POP JUMP JUMPDEST PUSH1 0x0 DUP1 REVERT JUMPDEST PUSH1 0x0 PUSH1 0x1F NOT PUSH1 0x1F DUP4 ADD AND SWAP1 POP SWAP2 SWAP1 POP JUMP JUMPDEST PUSH32 0x4E487B7100000000000000000000000000000000000000000000000000000000 PUSH1 0x0 MSTORE PUSH1 0x41 PUSH1 0x4 MSTORE PUSH1 0x24 PUSH1 0x0 REVERT JUMPDEST PUSH2 0x1640 DUP3 PUSH2 0x15F7 JUMP JUMPDEST DUP2 ADD DUP2 DUP2 LT PUSH8 0xFFFFFFFFFFFFFFFF DUP3 GT OR ISZERO PUSH2 0x165F JUMPI PUSH2 0x165E PUSH2 0x1608 JUMP JUMPDEST JUMPDEST DUP1 PUSH1 0x40 MSTORE POP POP POP JUMP JUMPDEST PUSH1 0x0 PUSH2 0x1672 PUSH2 0x1580 JUMP JUMPDEST SWAP1 POP PUSH2 0x167E DUP3 DUP3 PUSH2 0x1637 JUMP JUMPDEST SWAP2 SWAP1 POP JUMP JUMPDEST PUSH1 0x0 PUSH8 0xFFFFFFFFFFFFFFFF DUP3 GT ISZERO PUSH2 0x169E JUMPI PUSH2 0x169D PUSH2 0x1608 JUMP JUMPDEST JUMPDEST PUSH1 0x20 DUP3 MUL SWAP1 POP PUSH1 0x20 DUP2 ADD SWAP1 POP SWAP2 SWAP1 POP JUMP JUMPDEST PUSH1 0x0 DUP1 REVERT JUMPDEST PUSH1 0x0 DUP1 REVERT JUMPDEST PUSH1 0x0 PUSH8 0xFFFFFFFFFFFFFFFF DUP3 GT ISZERO PUSH2 0x16D4 JUMPI PUSH2 0x16D3 PUSH2 0x1608 JUMP JUMPDEST JUMPDEST PUSH2 0x16DD DUP3 PUSH2 0x15F7 JUMP JUMPDEST SWAP1 POP PUSH1 0x20 DUP2 ADD SWAP1 POP SWAP2 SWAP1 POP JUMP JUMPDEST DUP3 DUP2 DUP4 CALLDATACOPY PUSH1 0x0 DUP4 DUP4 ADD MSTORE POP POP POP JUMP JUMPDEST PUSH1 0x0 PUSH2 0x170C PUSH2 0x1707 DUP5 PUSH2 0x16B9 JUMP JUMPDEST PUSH2 0x1668 JUMP JUMPDEST SWAP1 POP DUP3 DUP2 MSTORE PUSH1 0x20 DUP2 ADD DUP5 DUP5 DUP5 ADD GT ISZERO PUSH2 0x1728 JUMPI PUSH2 0x1727 PUSH2 0x16B4 JUMP JUMPDEST JUMPDEST PUSH2 0x1733 DUP5 DUP3 DUP6 PUSH2 0x16EA JUMP JUMPDEST POP SWAP4 SWAP3 POP POP POP JUMP JUMPDEST PUSH1 0x0 DUP3 PUSH1 0x1F DUP4 ADD SLT PUSH2 0x1750 JUMPI PUSH2 0x174F PUSH2 0x15F2 JUMP JUMPDEST JUMPDEST DUP2 CALLDATALOAD PUSH2 0x1760 DUP5 DUP3 PUSH1 0x20 DUP7 ADD PUSH2 0x16F9 JUMP JUMPDEST SWAP2 POP POP SWAP3 SWAP2 POP POP JUMP JUMPDEST PUSH1 0x0 PUSH2 0x177C PUSH2 0x1777 DUP5 PUSH2 0x1683 JUMP JUMPDEST PUSH2 0x1668 JUMP JUMPDEST SWAP1 POP DUP1 DUP4 DUP3 MSTORE PUSH1 0x20 DUP3 ADD SWAP1 POP PUSH1 0x20 DUP5 MUL DUP4 ADD DUP6 DUP2 GT ISZERO PUSH2 0x179F JUMPI PUSH2 0x179E PUSH2 0x16AF JUMP JUMPDEST JUMPDEST DUP4 JUMPDEST DUP2 DUP2 LT ISZERO PUSH2 0x17E6 JUMPI DUP1 CALLDATALOAD PUSH8 0xFFFFFFFFFFFFFFFF DUP2 GT ISZERO PUSH2 0x17C4 JUMPI PUSH2 0x17C3 PUSH2 0x15F2 JUMP JUMPDEST JUMPDEST DUP1 DUP7 ADD PUSH2 0x17D1 DUP10 DUP3 PUSH2 0x173B JUMP JUMPDEST DUP6 MSTORE PUSH1 0x20 DUP6 ADD SWAP5 POP POP POP PUSH1 0x20 DUP2 ADD SWAP1 POP PUSH2 0x17A1 JUMP JUMPDEST POP POP POP SWAP4 SWAP3 POP POP POP JUMP JUMPDEST PUSH1 0x0 DUP3 PUSH1 0x1F DUP4 ADD SLT PUSH2 0x1805 JUMPI PUSH2 0x1804 PUSH2 0x15F2 JUMP JUMPDEST JUMPDEST DUP2 CALLDATALOAD PUSH2 0x1815 DUP5 DUP3 PUSH1 0x20 DUP7 ADD PUSH2 0x1769 JUMP JUMPDEST SWAP2 POP POP SWAP3 SWAP2 POP POP JUMP JUMPDEST PUSH1 0x0 DUP1 PUSH1 0x40 DUP4 DUP6 SUB SLT ISZERO PUSH2 0x1835 JUMPI PUSH2 0x1834 PUSH2 0x158A JUMP JUMPDEST JUMPDEST PUSH1 0x0 PUSH2 0x1843 DUP6 DUP3 DUP7 ADD PUSH2 0x15DD JUMP JUMPDEST SWAP3 POP POP PUSH1 0x20 DUP4 ADD CALLDATALOAD PUSH8 0xFFFFFFFFFFFFFFFF DUP2 GT ISZERO PUSH2 0x1864 JUMPI PUSH2 0x1863 PUSH2 0x158F JUMP JUMPDEST JUMPDEST PUSH2 0x1870 DUP6 DUP3 DUP7 ADD PUSH2 0x17F0 JUMP JUMPDEST SWAP2 POP POP SWAP3 POP SWAP3 SWAP1 POP JUMP JUMPDEST PUSH1 0x0 DUP2 PUSH1 0x7 SIGNEXTEND SWAP1 POP SWAP2 SWAP1 POP JUMP JUMPDEST PUSH2 0x1890 DUP2 PUSH2 0x187A JUMP JUMPDEST DUP3 MSTORE POP POP JUMP JUMPDEST PUSH1 0x0 PUSH1 0x20 DUP3 ADD SWAP1 POP PUSH2 0x18AB PUSH1 0x0 DUP4 ADD DUP5 PUSH2 0x1887 JUMP JUMPDEST SWAP3 SWAP2 POP POP JUMP JUMPDEST PUSH1 0x0 DUP1 REVERT JUMPDEST PUSH1 0x0 DUP1 REVERT JUMPDEST PUSH1 0x0 PUSH8 0xFFFFFFFFFFFFFFFF DUP3 GT ISZERO PUSH2 0x18D6 JUMPI PUSH2 0x18D5 PUSH2 0x1608 JUMP JUMPDEST JUMPDEST PUSH2 0x18DF DUP3 PUSH2 0x15F7 JUMP JUMPDEST SWAP1 POP PUSH1 0x20 DUP2 ADD SWAP1 POP SWAP2 SWAP1 POP JUMP JUMPDEST PUSH1 0x0 PUSH2 0x18FF PUSH2 0x18FA DUP5 PUSH2 0x18BB JUMP JUMPDEST PUSH2 0x1668 JUMP JUMPDEST SWAP1 POP DUP3 DUP2 MSTORE PUSH1 0x20 DUP2 ADD DUP5 DUP5 DUP5 ADD GT ISZERO PUSH2 0x191B JUMPI PUSH2 0x191A PUSH2 0x16B4 JUMP JUMPDEST JUMPDEST PUSH2 0x1926 DUP5 DUP3 DUP6 PUSH2 0x16EA JUMP JUMPDEST POP SWAP4 SWAP3 POP POP POP JUMP JUMPDEST PUSH1 0x0 DUP3 PUSH1 0x1F DUP4 ADD SLT PUSH2 0x1943 JUMPI PUSH2 0x1942 PUSH2 0x15F2 JUMP JUMPDEST JUMPDEST DUP2 CALLDATALOAD PUSH2 0x1953 DUP5 DUP3 PUSH1 0x20 DUP7 ADD PUSH2 0x18EC JUMP JUMPDEST SWAP2 POP POP SWAP3 SWAP2 POP POP JUMP JUMPDEST PUSH1 0x0 DUP2 ISZERO ISZERO SWAP1 POP SWAP2 SWAP1 POP JUMP JUMPDEST PUSH2 0x1971 DUP2 PUSH2 0x195C JUMP JUMPDEST DUP2 EQ PUSH2 0x197C JUMPI PUSH1 0x0 DUP1 REVERT JUMPDEST POP JUMP JUMPDEST PUSH1 0x0 DUP2 CALLDATALOAD SWAP1 POP PUSH2 0x198E DUP2 PUSH2 0x1968 JUMP JUMPDEST SWAP3 SWAP2 POP POP JUMP JUMPDEST PUSH2 0x199D DUP2 PUSH2 0x187A JUMP JUMPDEST DUP2 EQ PUSH2 0x19A8 JUMPI PUSH1 0x0 DUP1 REVERT JUMPDEST POP JUMP JUMPDEST PUSH1 0x0 DUP2 CALLDATALOAD SWAP1 POP PUSH2 0x19BA DUP2 PUSH2 0x1994 JUMP JUMPDEST SWAP3 SWAP2 POP POP JUMP JUMPDEST PUSH1 0x0 PUSH8 0xFFFFFFFFFFFFFFFF DUP3 GT ISZERO PUSH2 0x19DB JUMPI PUSH2 0x19DA PUSH2 0x1608 JUMP JUMPDEST JUMPDEST PUSH1 0x20 DUP3 MUL SWAP1 POP PUSH1 0x20 DUP2 ADD SWAP1 POP SWAP2 SWAP1 POP JUMP JUMPDEST PUSH1 0x0 DUP2 SWAP1 POP SWAP2 SWAP1 POP JUMP JUMPDEST PUSH2 0x19FF DUP2 PUSH2 0x19EC JUMP JUMPDEST DUP2 EQ PUSH2 0x1A0A JUMPI PUSH1 0x0 DUP1 REVERT JUMPDEST POP JUMP JUMPDEST PUSH1 0x0 DUP2 CALLDATALOAD SWAP1 POP PUSH2 0x1A1C DUP2 PUSH2 0x19F6 JUMP JUMPDEST SWAP3 SWAP2 POP POP JUMP JUMPDEST PUSH1 0x0 PUSH1 0xA0 DUP3 DUP5 SUB SLT ISZERO PUSH2 0x1A38 JUMPI PUSH2 0x1A37 PUSH2 0x18B1 JUMP JUMPDEST JUMPDEST PUSH2 0x1A42 PUSH1 0xA0 PUSH2 0x1668 JUMP JUMPDEST SWAP1 POP PUSH1 0x0 PUSH2 0x1A52 DUP5 DUP3 DUP6 ADD PUSH2 0x197F JUMP JUMPDEST PUSH1 0x0 DUP4 ADD MSTORE POP PUSH1 0x20 PUSH2 0x1A66 DUP5 DUP3 DUP6 ADD PUSH2 0x15DD JUMP JUMPDEST PUSH1 0x20 DUP4 ADD MSTORE POP PUSH1 0x40 DUP3 ADD CALLDATALOAD PUSH8 0xFFFFFFFFFFFFFFFF DUP2 GT ISZERO PUSH2 0x1A8A JUMPI PUSH2 0x1A89 PUSH2 0x18B6 JUMP JUMPDEST JUMPDEST PUSH2 0x1A96 DUP5 DUP3 DUP6 ADD PUSH2 0x173B JUMP JUMPDEST PUSH1 0x40 DUP4 ADD MSTORE POP PUSH1 0x60 DUP3 ADD CALLDATALOAD PUSH8 0xFFFFFFFFFFFFFFFF DUP2 GT ISZERO PUSH2 0x1ABA JUMPI PUSH2 0x1AB9 PUSH2 0x18B6 JUMP JUMPDEST JUMPDEST PUSH2 0x1AC6 DUP5 DUP3 DUP6 ADD PUSH2 0x173B JUMP JUMPDEST PUSH1 0x60 DUP4 ADD MSTORE POP PUSH1 0x80 PUSH2 0x1ADA DUP5 DUP3 DUP6 ADD PUSH2 0x15DD JUMP JUMPDEST PUSH1 0x80 DUP4 ADD MSTORE POP SWAP3 SWAP2 POP POP JUMP JUMPDEST PUSH1 0x0 PUSH1 0x40 DUP3 DUP5 SUB SLT ISZERO PUSH2 0x1AFC JUMPI PUSH2 0x1AFB PUSH2 0x18B1 JUMP JUMPDEST JUMPDEST PUSH2 0x1B06 PUSH1 0x40 PUSH2 0x1668 JUMP JUMPDEST SWAP1 POP PUSH1 0x0 PUSH2 0x1B16 DUP5 DUP3 DUP6 ADD PUSH2 0x1A0D JUMP JUMPDEST PUSH1 0x0 DUP4 ADD MSTORE POP PUSH1 0x20 DUP3 ADD CALLDATALOAD PUSH8 0xFFFFFFFFFFFFFFFF DUP2 GT ISZERO PUSH2 0x1B3A JUMPI PUSH2 0x1B39 PUSH2 0x18B6 JUMP JUMPDEST JUMPDEST PUSH2 0x1B46 DUP5 DUP3 DUP6 ADD PUSH2 0x1A22 JUMP JUMPDEST PUSH1 0x20 DUP4 ADD MSTORE POP SWAP3 SWAP2 POP POP JUMP JUMPDEST PUSH1 0x0 PUSH2 0x1B65 PUSH2 0x1B60 DUP5 PUSH2 0x19C0 JUMP JUMPDEST PUSH2 0x1668 JUMP JUMPDEST SWAP1 POP DUP1 DUP4 DUP3 MSTORE PUSH1 0x20 DUP3 ADD SWAP1 POP PUSH1 0x20 DUP5 MUL DUP4 ADD DUP6 DUP2 GT ISZERO PUSH2 0x1B88 JUMPI PUSH2 0x1B87 PUSH2 0x16AF JUMP JUMPDEST JUMPDEST DUP4 JUMPDEST DUP2 DUP2 LT ISZERO PUSH2 0x1BCF JUMPI DUP1 CALLDATALOAD PUSH8 0xFFFFFFFFFFFFFFFF DUP2 GT ISZERO PUSH2 0x1BAD JUMPI PUSH2 0x1BAC PUSH2 0x15F2 JUMP JUMPDEST JUMPDEST DUP1 DUP7 ADD PUSH2 0x1BBA DUP10 DUP3 PUSH2 0x1AE6 JUMP JUMPDEST DUP6 MSTORE PUSH1 0x20 DUP6 ADD SWAP5 POP POP POP PUSH1 0x20 DUP2 ADD SWAP1 POP PUSH2 0x1B8A JUMP JUMPDEST POP POP POP SWAP4 SWAP3 POP POP POP JUMP JUMPDEST PUSH1 0x0 DUP3 PUSH1 0x1F DUP4 ADD SLT PUSH2 0x1BEE JUMPI PUSH2 0x1BED PUSH2 0x15F2 JUMP JUMPDEST JUMPDEST DUP2 CALLDATALOAD PUSH2 0x1BFE DUP5 DUP3 PUSH1 0x20 DUP7 ADD PUSH2 0x1B52 JUMP JUMPDEST SWAP2 POP POP SWAP3 SWAP2 POP POP JUMP JUMPDEST PUSH1 0x0 PUSH4 0xFFFFFFFF DUP3 AND SWAP1 POP SWAP2 SWAP1 POP JUMP JUMPDEST PUSH2 0x1C20 DUP2 PUSH2 0x1C07 JUMP JUMPDEST DUP2 EQ PUSH2 0x1C2B JUMPI PUSH1 0x0 DUP1 REVERT JUMPDEST POP JUMP JUMPDEST PUSH1 0x0 DUP2 CALLDATALOAD SWAP1 POP PUSH2 0x1C3D DUP2 PUSH2 0x1C17 JUMP JUMPDEST SWAP3 SWAP2 POP POP JUMP JUMPDEST PUSH1 0x0 PUSH1 0x60 DUP3 DUP5 SUB SLT ISZERO PUSH2 0x1C59 JUMPI PUSH2 0x1C58 PUSH2 0x18B1 JUMP JUMPDEST JUMPDEST PUSH2 0x1C63 PUSH1 0x60 PUSH2 0x1668 JUMP JUMPDEST SWAP1 POP PUSH1 0x0 PUSH2 0x1C73 DUP5 DUP3 DUP6 ADD PUSH2 0x1C2E JUMP JUMPDEST PUSH1 0x0 DUP4 ADD MSTORE POP PUSH1 0x20 PUSH2 0x1C87 DUP5 DUP3 DUP6 ADD PUSH2 0x15DD JUMP JUMPDEST PUSH1 0x20 DUP4 ADD MSTORE POP PUSH1 0x40 PUSH2 0x1C9B DUP5 DUP3 DUP6 ADD PUSH2 0x1C2E JUMP JUMPDEST PUSH1 0x40 DUP4 ADD MSTORE POP SWAP3 SWAP2 POP POP JUMP JUMPDEST PUSH1 0x0 PUSH2 0x160 DUP3 DUP5 SUB SLT ISZERO PUSH2 0x1CBE JUMPI PUSH2 0x1CBD PUSH2 0x18B1 JUMP JUMPDEST JUMPDEST PUSH2 0x1CC9 PUSH2 0x120 PUSH2 0x1668 JUMP JUMPDEST SWAP1 POP PUSH1 0x0 DUP3 ADD CALLDATALOAD PUSH8 0xFFFFFFFFFFFFFFFF DUP2 GT ISZERO PUSH2 0x1CE9 JUMPI PUSH2 0x1CE8 PUSH2 0x18B6 JUMP JUMPDEST JUMPDEST PUSH2 0x1CF5 DUP5 DUP3 DUP6 ADD PUSH2 0x192E JUMP JUMPDEST PUSH1 0x0 DUP4 ADD MSTORE POP PUSH1 0x20 DUP3 ADD CALLDATALOAD PUSH8 0xFFFFFFFFFFFFFFFF DUP2 GT ISZERO PUSH2 0x1D19 JUMPI PUSH2 0x1D18 PUSH2 0x18B6 JUMP JUMPDEST JUMPDEST PUSH2 0x1D25 DUP5 DUP3 DUP6 ADD PUSH2 0x192E JUMP JUMPDEST PUSH1 0x20 DUP4 ADD MSTORE POP PUSH1 0x40 PUSH2 0x1D39 DUP5 DUP3 DUP6 ADD PUSH2 0x15DD JUMP JUMPDEST PUSH1 0x40 DUP4 ADD MSTORE POP PUSH1 0x60 DUP3 ADD CALLDATALOAD PUSH8 0xFFFFFFFFFFFFFFFF DUP2 GT ISZERO PUSH2 0x1D5D JUMPI PUSH2 0x1D5C PUSH2 0x18B6 JUMP JUMPDEST JUMPDEST PUSH2 0x1D69 DUP5 DUP3 DUP6 ADD PUSH2 0x192E JUMP JUMPDEST PUSH1 0x60 DUP4 ADD MSTORE POP PUSH1 0x80 PUSH2 0x1D7D DUP5 DUP3 DUP6 ADD PUSH2 0x197F JUMP JUMPDEST PUSH1 0x80 DUP4 ADD MSTORE POP PUSH1 0xA0 PUSH2 0x1D91 DUP5 DUP3 DUP6 ADD PUSH2 0x19AB JUMP JUMPDEST PUSH1 0xA0 DUP4 ADD MSTORE POP PUSH1 0xC0 PUSH2 0x1DA5 DUP5 DUP3 DUP6 ADD PUSH2 0x197F JUMP JUMPDEST PUSH1 0xC0 DUP4 ADD MSTORE POP PUSH1 0xE0 DUP3 ADD CALLDATALOAD PUSH8 0xFFFFFFFFFFFFFFFF DUP2 GT ISZERO PUSH2 0x1DC9 JUMPI PUSH2 0x1DC8 PUSH2 0x18B6 JUMP JUMPDEST JUMPDEST PUSH2 0x1DD5 DUP5 DUP3 DUP6 ADD PUSH2 0x1BD9 JUMP JUMPDEST PUSH1 0xE0 DUP4 ADD MSTORE POP PUSH2 0x100 PUSH2 0x1DEA DUP5 DUP3 DUP6 ADD PUSH2 0x1C43 JUMP JUMPDEST PUSH2 0x100 DUP4 ADD MSTORE POP SWAP3 SWAP2 POP POP JUMP JUMPDEST PUSH1 0x0 DUP1 PUSH1 0x40 DUP4 DUP6 SUB SLT ISZERO PUSH2 0x1E0E JUMPI PUSH2 0x1E0D PUSH2 0x158A JUMP JUMPDEST JUMPDEST PUSH1 0x0 PUSH2 0x1E1C DUP6 DUP3 DUP7 ADD PUSH2 0x15DD JUMP JUMPDEST SWAP3 POP POP PUSH1 0x20 DUP4 ADD CALLDATALOAD PUSH8 0xFFFFFFFFFFFFFFFF DUP2 GT ISZERO PUSH2 0x1E3D JUMPI PUSH2 0x1E3C PUSH2 0x158F JUMP JUMPDEST JUMPDEST PUSH2 0x1E49 DUP6 DUP3 DUP7 ADD PUSH2 0x1CA7 JUMP JUMPDEST SWAP2 POP POP SWAP3 POP SWAP3 SWAP1 POP JUMP JUMPDEST PUSH1 0x0 DUP2 SWAP1 POP SWAP2 SWAP1 POP JUMP JUMPDEST PUSH2 0x1E66 DUP2 PUSH2 0x1E53 JUMP JUMPDEST DUP3 MSTORE POP POP JUMP JUMPDEST PUSH1 0x0 PUSH1 0x20 DUP3 ADD SWAP1 POP PUSH2 0x1E81 PUSH1 0x0 DUP4 ADD DUP5 PUSH2 0x1E5D JUMP JUMPDEST SWAP3 SWAP2 POP POP JUMP JUMPDEST PUSH1 0x0 PUSH1 0x20 DUP3 DUP5 SUB SLT ISZERO PUSH2 0x1E9D JUMPI PUSH2 0x1E9C PUSH2 0x158A JUMP JUMPDEST JUMPDEST PUSH1 0x0 PUSH2 0x1EAB DUP5 DUP3 DUP6 ADD PUSH2 0x15DD JUMP JUMPDEST SWAP2 POP POP SWAP3 SWAP2 POP POP JUMP JUMPDEST PUSH1 0x0 DUP1 PUSH1 0x80 DUP4 DUP6 SUB SLT ISZERO PUSH2 0x1ECB JUMPI PUSH2 0x1ECA PUSH2 0x158A JUMP JUMPDEST JUMPDEST PUSH1 0x0 PUSH2 0x1ED9 DUP6 DUP3 DUP7 ADD PUSH2 0x15DD JUMP JUMPDEST SWAP3 POP POP PUSH1 0x20 PUSH2 0x1EEA DUP6 DUP3 DUP7 ADD PUSH2 0x1C43 JUMP JUMPDEST SWAP2 POP POP SWAP3 POP SWAP3 SWAP1 POP JUMP JUMPDEST PUSH1 0x0 DUP1 PUSH1 0x0 PUSH1 0x60 DUP5 DUP7 SUB SLT ISZERO PUSH2 0x1F0D JUMPI PUSH2 0x1F0C PUSH2 0x158A JUMP JUMPDEST JUMPDEST PUSH1 0x0 PUSH2 0x1F1B DUP7 DUP3 DUP8 ADD PUSH2 0x15DD JUMP JUMPDEST SWAP4 POP POP PUSH1 0x20 PUSH2 0x1F2C DUP7 DUP3 DUP8 ADD PUSH2 0x15DD JUMP JUMPDEST SWAP3 POP POP PUSH1 0x40 PUSH2 0x1F3D DUP7 DUP3 DUP8 ADD PUSH2 0x19AB JUMP JUMPDEST SWAP2 POP POP SWAP3 POP SWAP3 POP SWAP3 JUMP JUMPDEST PUSH1 0x0 DUP1 PUSH1 0x40 DUP4 DUP6 SUB SLT ISZERO PUSH2 0x1F5E JUMPI PUSH2 0x1F5D PUSH2 0x158A JUMP JUMPDEST JUMPDEST PUSH1 0x0 PUSH2 0x1F6C DUP6 DUP3 DUP7 ADD PUSH2 0x15DD JUMP JUMPDEST SWAP3 POP POP PUSH1 0x20 PUSH2 0x1F7D DUP6 DUP3 DUP7 ADD PUSH2 0x15DD JUMP JUMPDEST SWAP2 POP POP SWAP3 POP SWAP3 SWAP1 POP JUMP JUMPDEST PUSH1 0x0 DUP1 PUSH1 0x0 DUP1 PUSH1 0x0 PUSH1 0xA0 DUP7 DUP9 SUB SLT ISZERO PUSH2 0x1FA3 JUMPI PUSH2 0x1FA2 PUSH2 0x158A JUMP JUMPDEST JUMPDEST PUSH1 0x0 DUP7 ADD CALLDATALOAD PUSH8 0xFFFFFFFFFFFFFFFF DUP2 GT ISZERO PUSH2 0x1FC1 JUMPI PUSH2 0x1FC0 PUSH2 0x158F JUMP JUMPDEST JUMPDEST PUSH2 0x1FCD DUP9 DUP3 DUP10 ADD PUSH2 0x192E JUMP JUMPDEST SWAP6 POP POP PUSH1 0x20 DUP7 ADD CALLDATALOAD PUSH8 0xFFFFFFFFFFFFFFFF DUP2 GT ISZERO PUSH2 0x1FEE JUMPI PUSH2 0x1FED PUSH2 0x158F JUMP JUMPDEST JUMPDEST PUSH2 0x1FFA DUP9 DUP3 DUP10 ADD PUSH2 0x192E JUMP JUMPDEST SWAP5 POP POP PUSH1 0x40 DUP7 ADD CALLDATALOAD PUSH8 0xFFFFFFFFFFFFFFFF DUP2 GT ISZERO PUSH2 0x201B JUMPI PUSH2 0x201A PUSH2 0x158F JUMP JUMPDEST JUMPDEST PUSH2 0x2027 DUP9 DUP3 DUP10 ADD PUSH2 0x192E JUMP JUMPDEST SWAP4 POP POP PUSH1 0x60 PUSH2 0x2038 DUP9 DUP3 DUP10 ADD PUSH2 0x19AB JUMP JUMPDEST SWAP3 POP POP PUSH1 0x80 PUSH2 0x2049 DUP9 DUP3 DUP10 ADD PUSH2 0x1C2E JUMP JUMPDEST SWAP2 POP POP SWAP3 SWAP6 POP SWAP3 SWAP6 SWAP1 SWAP4 POP JUMP JUMPDEST PUSH2 0x205F DUP2 PUSH2 0x15B4 JUMP JUMPDEST DUP3 MSTORE POP POP JUMP JUMPDEST PUSH1 0x0 PUSH1 0x20 DUP3 ADD SWAP1 POP PUSH2 0x207A PUSH1 0x0 DUP4 ADD DUP5 PUSH2 0x2056 JUMP JUMPDEST SWAP3 SWAP2 POP POP JUMP JUMPDEST PUSH2 0x2089 DUP2 PUSH2 0x1C07 JUMP JUMPDEST DUP3 MSTORE POP POP JUMP JUMPDEST PUSH2 0x2098 DUP2 PUSH2 0x15B4 JUMP JUMPDEST DUP3 MSTORE POP POP JUMP JUMPDEST PUSH1 0x60 DUP3 ADD PUSH1 0x0 DUP3 ADD MLOAD PUSH2 0x20B4 PUSH1 0x0 DUP6 ADD DUP3 PUSH2 0x2080 JUMP JUMPDEST POP PUSH1 0x20 DUP3 ADD MLOAD PUSH2 0x20C7 PUSH1 0x20 DUP6 ADD DUP3 PUSH2 0x208F JUMP JUMPDEST POP PUSH1 0x40 DUP3 ADD MLOAD PUSH2 0x20DA PUSH1 0x40 DUP6 ADD DUP3 PUSH2 0x2080 JUMP JUMPDEST POP POP POP POP JUMP JUMPDEST PUSH1 0x0 PUSH1 0x80 DUP3 ADD SWAP1 POP PUSH2 0x20F5 PUSH1 0x0 DUP4 ADD DUP6 PUSH2 0x1E5D JUMP JUMPDEST PUSH2 0x2102 PUSH1 0x20 DUP4 ADD DUP5 PUSH2 0x209E JUMP JUMPDEST SWAP4 SWAP3 POP POP POP JUMP JUMPDEST PUSH2 0x2112 DUP2 PUSH2 0x195C JUMP JUMPDEST DUP3 MSTORE POP POP JUMP JUMPDEST PUSH1 0x0 PUSH1 0x40 DUP3 ADD SWAP1 POP PUSH2 0x212D PUSH1 0x0 DUP4 ADD DUP6 PUSH2 0x1887 JUMP JUMPDEST PUSH2 0x213A PUSH1 0x20 DUP4 ADD DUP5 PUSH2 0x2109 JUMP JUMPDEST SWAP4 SWAP3 POP POP POP JUMP JUMPDEST PUSH1 0x0 DUP3 DUP3 MSTORE PUSH1 0x20 DUP3 ADD SWAP1 POP SWAP3 SWAP2 POP POP JUMP JUMPDEST PUSH32 0x4661696C656420746F206D696E74206E6F6E2D66756E6769626C6520746F6B65 PUSH1 0x0 DUP3 ADD MSTORE PUSH32 0x6E00000000000000000000000000000000000000000000000000000000000000 PUSH1 0x20 DUP3 ADD MSTORE POP JUMP JUMPDEST PUSH1 0x0 PUSH2 0x21AE PUSH1 0x21 DUP4 PUSH2 0x2141 JUMP JUMPDEST SWAP2 POP PUSH2 0x21B9 DUP3 PUSH2 0x2152 JUMP JUMPDEST PUSH1 0x40 DUP3 ADD SWAP1 POP SWAP2 SWAP1 POP JUMP JUMPDEST PUSH1 0x0 PUSH1 0x20 DUP3 ADD SWAP1 POP DUP2 DUP2 SUB PUSH1 0x0 DUP4 ADD MSTORE PUSH2 0x21DD DUP2 PUSH2 0x21A1 JUMP JUMPDEST SWAP1 POP SWAP2 SWAP1 POP JUMP JUMPDEST PUSH32 0x4E487B7100000000000000000000000000000000000000000000000000000000 PUSH1 0x0 MSTORE PUSH1 0x32 PUSH1 0x4 MSTORE PUSH1 0x24 PUSH1 0x0 REVERT JUMPDEST PUSH1 0x0 DUP2 MLOAD SWAP1 POP SWAP2 SWAP1 POP JUMP JUMPDEST PUSH1 0x0 DUP3 DUP3 MSTORE PUSH1 0x20 DUP3 ADD SWAP1 POP SWAP3 SWAP2 POP POP JUMP JUMPDEST PUSH1 0x0 JUMPDEST DUP4 DUP2 LT ISZERO PUSH2 0x224D JUMPI DUP1 DUP3 ADD MLOAD DUP2 DUP5 ADD MSTORE PUSH1 0x20 DUP2 ADD SWAP1 POP PUSH2 0x2232 JUMP JUMPDEST DUP4 DUP2 GT ISZERO PUSH2 0x225C JUMPI PUSH1 0x0 DUP5 DUP5 ADD MSTORE JUMPDEST POP POP POP POP JUMP JUMPDEST PUSH1 0x0 PUSH2 0x226D DUP3 PUSH2 0x2213 JUMP JUMPDEST PUSH2 0x2277 DUP2 DUP6 PUSH2 0x221E JUMP JUMPDEST SWAP4 POP PUSH2 0x2287 DUP2 DUP6 PUSH1 0x20 DUP7 ADD PUSH2 0x222F JUMP JUMPDEST PUSH2 0x2290 DUP2 PUSH2 0x15F7 JUMP JUMPDEST DUP5 ADD SWAP2 POP POP SWAP3 SWAP2 POP POP JUMP JUMPDEST PUSH2 0x22A4 DUP2 PUSH2 0x195C JUMP JUMPDEST DUP3 MSTORE POP POP JUMP JUMPDEST PUSH2 0x22B3 DUP2 PUSH2 0x187A JUMP JUMPDEST DUP3 MSTORE POP POP JUMP JUMPDEST PUSH1 0x0 DUP2 MLOAD SWAP1 POP SWAP2 SWAP1 POP JUMP JUMPDEST PUSH1 0x0 DUP3 DUP3 MSTORE PUSH1 0x20 DUP3 ADD SWAP1 POP SWAP3 SWAP2 POP POP JUMP JUMPDEST PUSH1 0x0 DUP2 SWAP1 POP PUSH1 0x20 DUP3 ADD SWAP1 POP SWAP2 SWAP1 POP JUMP JUMPDEST PUSH2 0x22EE DUP2 PUSH2 0x19EC JUMP JUMPDEST DUP3 MSTORE POP POP JUMP JUMPDEST PUSH1 0x0 DUP2 MLOAD SWAP1 POP SWAP2 SWAP1 POP JUMP JUMPDEST PUSH1 0x0 DUP3 DUP3 MSTORE PUSH1 0x20 DUP3 ADD SWAP1 POP SWAP3 SWAP2 POP POP JUMP JUMPDEST PUSH1 0x0 PUSH2 0x231B DUP3 PUSH2 0x22F4 JUMP JUMPDEST PUSH2 0x2325 DUP2 DUP6 PUSH2 0x22FF JUMP JUMPDEST SWAP4 POP PUSH2 0x2335 DUP2 DUP6 PUSH1 0x20 DUP7 ADD PUSH2 0x222F JUMP JUMPDEST PUSH2 0x233E DUP2 PUSH2 0x15F7 JUMP JUMPDEST DUP5 ADD SWAP2 POP POP SWAP3 SWAP2 POP POP JUMP JUMPDEST PUSH1 0x0 PUSH1 0xA0 DUP4 ADD PUSH1 0x0 DUP4 ADD MLOAD PUSH2 0x2361 PUSH1 0x0 DUP7 ADD DUP3 PUSH2 0x229B JUMP JUMPDEST POP PUSH1 0x20 DUP4 ADD MLOAD PUSH2 0x2374 PUSH1 0x20 DUP7 ADD DUP3 PUSH2 0x208F JUMP JUMPDEST POP PUSH1 0x40 DUP4 ADD MLOAD DUP5 DUP3 SUB PUSH1 0x40 DUP7 ADD MSTORE PUSH2 0x238C DUP3 DUP3 PUSH2 0x2310 JUMP JUMPDEST SWAP2 POP POP PUSH1 0x60 DUP4 ADD MLOAD DUP5 DUP3 SUB PUSH1 0x60 DUP7 ADD MSTORE PUSH2 0x23A6 DUP3 DUP3 PUSH2 0x2310 JUMP JUMPDEST SWAP2 POP POP PUSH1 0x80 DUP4 ADD MLOAD PUSH2 0x23BB PUSH1 0x80 DUP7 ADD DUP3 PUSH2 0x208F JUMP JUMPDEST POP DUP1 SWAP2 POP POP SWAP3 SWAP2 POP POP JUMP JUMPDEST PUSH1 0x0 PUSH1 0x40 DUP4 ADD PUSH1 0x0 DUP4 ADD MLOAD PUSH2 0x23DE PUSH1 0x0 DUP7 ADD DUP3 PUSH2 0x22E5 JUMP JUMPDEST POP PUSH1 0x20 DUP4 ADD MLOAD DUP5 DUP3 SUB PUSH1 0x20 DUP7 ADD MSTORE PUSH2 0x23F6 DUP3 DUP3 PUSH2 0x2349 JUMP JUMPDEST SWAP2 POP POP DUP1 SWAP2 POP POP SWAP3 SWAP2 POP POP JUMP JUMPDEST PUSH1 0x0 PUSH2 0x240F DUP4 DUP4 PUSH2 0x23C6 JUMP JUMPDEST SWAP1 POP SWAP3 SWAP2 POP POP JUMP JUMPDEST PUSH1 0x0 PUSH1 0x20 DUP3 ADD SWAP1 POP SWAP2 SWAP1 POP JUMP JUMPDEST PUSH1 0x0 PUSH2 0x242F DUP3 PUSH2 0x22B9 JUMP JUMPDEST PUSH2 0x2439 DUP2 DUP6 PUSH2 0x22C4 JUMP JUMPDEST SWAP4 POP DUP4 PUSH1 0x20 DUP3 MUL DUP6 ADD PUSH2 0x244B DUP6 PUSH2 0x22D5 JUMP JUMPDEST DUP1 PUSH1 0x0 JUMPDEST DUP6 DUP2 LT ISZERO PUSH2 0x2487 JUMPI DUP5 DUP5 SUB DUP10 MSTORE DUP2 MLOAD PUSH2 0x2468 DUP6 DUP3 PUSH2 0x2403 JUMP JUMPDEST SWAP5 POP PUSH2 0x2473 DUP4 PUSH2 0x2417 JUMP JUMPDEST SWAP3 POP PUSH1 0x20 DUP11 ADD SWAP10 POP POP PUSH1 0x1 DUP2 ADD SWAP1 POP PUSH2 0x244F JUMP JUMPDEST POP DUP3 SWAP8 POP DUP8 SWAP6 POP POP POP POP POP POP SWAP3 SWAP2 POP POP JUMP JUMPDEST PUSH1 0x60 DUP3 ADD PUSH1 0x0 DUP3 ADD MLOAD PUSH2 0x24AF PUSH1 0x0 DUP6 ADD DUP3 PUSH2 0x2080 JUMP JUMPDEST POP PUSH1 0x20 DUP3 ADD MLOAD PUSH2 0x24C2 PUSH1 0x20 DUP6 ADD DUP3 PUSH2 0x208F JUMP JUMPDEST POP PUSH1 0x40 DUP3 ADD MLOAD PUSH2 0x24D5 PUSH1 0x40 DUP6 ADD DUP3 PUSH2 0x2080 JUMP JUMPDEST POP POP POP POP JUMP JUMPDEST PUSH1 0x0 PUSH2 0x160 DUP4 ADD PUSH1 0x0 DUP4 ADD MLOAD DUP5 DUP3 SUB PUSH1 0x0 DUP7 ADD MSTORE PUSH2 0x24F9 DUP3 DUP3 PUSH2 0x2262 JUMP JUMPDEST SWAP2 POP POP PUSH1 0x20 DUP4 ADD MLOAD DUP5 DUP3 SUB PUSH1 0x20 DUP7 ADD MSTORE PUSH2 0x2513 DUP3 DUP3 PUSH2 0x2262 JUMP JUMPDEST SWAP2 POP POP PUSH1 0x40 DUP4 ADD MLOAD PUSH2 0x2528 PUSH1 0x40 DUP7 ADD DUP3 PUSH2 0x208F JUMP JUMPDEST POP PUSH1 0x60 DUP4 ADD MLOAD DUP5 DUP3 SUB PUSH1 0x60 DUP7 ADD MSTORE PUSH2 0x2540 DUP3 DUP3 PUSH2 0x2262 JUMP JUMPDEST SWAP2 POP POP PUSH1 0x80 DUP4 ADD MLOAD PUSH2 0x2555 PUSH1 0x80 DUP7 ADD DUP3 PUSH2 0x229B JUMP JUMPDEST POP PUSH1 0xA0 DUP4 ADD MLOAD PUSH2 0x2568 PUSH1 0xA0 DUP7 ADD DUP3 PUSH2 0x22AA JUMP JUMPDEST POP PUSH1 0xC0 DUP4 ADD MLOAD PUSH2 0x257B PUSH1 0xC0 DUP7 ADD DUP3 PUSH2 0x229B JUMP JUMPDEST POP PUSH1 0xE0 DUP4 ADD MLOAD DUP5 DUP3 SUB PUSH1 0xE0 DUP7 ADD MSTORE PUSH2 0x2593 DUP3 DUP3 PUSH2 0x2424 JUMP JUMPDEST SWAP2 POP POP PUSH2 0x100 DUP4 ADD MLOAD PUSH2 0x25AA PUSH2 0x100 DUP7 ADD DUP3 PUSH2 0x2499 JUMP JUMPDEST POP DUP1 SWAP2 POP POP SWAP3 SWAP2 POP POP JUMP JUMPDEST PUSH1 0x0 PUSH1 0x40 DUP3 ADD SWAP1 POP PUSH2 0x25CA PUSH1 0x0 DUP4 ADD DUP6 PUSH2 0x2056 JUMP JUMPDEST DUP2 DUP2 SUB PUSH1 0x20 DUP4 ADD MSTORE PUSH2 0x25DC DUP2 DUP5 PUSH2 0x24DB JUMP JUMPDEST SWAP1 POP SWAP4 SWAP3 POP POP POP JUMP JUMPDEST PUSH1 0x0 DUP2 SWAP1 POP SWAP3 SWAP2 POP POP JUMP JUMPDEST PUSH1 0x0 PUSH2 0x25FB DUP3 PUSH2 0x22F4 JUMP JUMPDEST PUSH2 0x2605 DUP2 DUP6 PUSH2 0x25E5 JUMP JUMPDEST SWAP4 POP PUSH2 0x2615 DUP2 DUP6 PUSH1 0x20 DUP7 ADD PUSH2 0x222F JUMP JUMPDEST DUP1 DUP5 ADD SWAP2 POP POP SWAP3 SWAP2 POP POP JUMP JUMPDEST PUSH1 0x0 PUSH2 0x262D DUP3 DUP5 PUSH2 0x25F0 JUMP JUMPDEST SWAP2 POP DUP2 SWAP1 POP SWAP3 SWAP2 POP POP JUMP JUMPDEST PUSH1 0x0 DUP2 PUSH1 0x3 SIGNEXTEND SWAP1 POP SWAP2 SWAP1 POP JUMP JUMPDEST PUSH2 0x264E DUP2 PUSH2 0x2638 JUMP JUMPDEST DUP2 EQ PUSH2 0x2659 JUMPI PUSH1 0x0 DUP1 REVERT JUMPDEST POP JUMP JUMPDEST PUSH1 0x0 DUP2 MLOAD SWAP1 POP PUSH2 0x266B DUP2 PUSH2 0x2645 JUMP JUMPDEST SWAP3 SWAP2 POP POP JUMP JUMPDEST PUSH1 0x0 PUSH1 0x20 DUP3 DUP5 SUB SLT ISZERO PUSH2 0x2687 JUMPI PUSH2 0x2686 PUSH2 0x158A JUMP JUMPDEST JUMPDEST PUSH1 0x0 PUSH2 0x2695 DUP5 DUP3 DUP6 ADD PUSH2 0x265C JUMP JUMPDEST SWAP2 POP POP SWAP3 SWAP2 POP POP JUMP JUMPDEST PUSH1 0x0 PUSH1 0x80 DUP3 ADD SWAP1 POP PUSH2 0x26B3 PUSH1 0x0 DUP4 ADD DUP6 PUSH2 0x2056 JUMP JUMPDEST PUSH2 0x26C0 PUSH1 0x20 DUP4 ADD DUP5 PUSH2 0x209E JUMP JUMPDEST SWAP4 SWAP3 POP POP POP JUMP JUMPDEST PUSH32 0x4661696C656420746F207472616E73666572206E6F6E2D66756E6769626C6520 PUSH1 0x0 DUP3 ADD MSTORE PUSH32 0x746F6B656E000000000000000000000000000000000000000000000000000000 PUSH1 0x20 DUP3 ADD MSTORE POP JUMP JUMPDEST PUSH1 0x0 PUSH2 0x2723 PUSH1 0x25 DUP4 PUSH2 0x2141 JUMP JUMPDEST SWAP2 POP PUSH2 0x272E DUP3 PUSH2 0x26C7 JUMP JUMPDEST PUSH1 0x40 DUP3 ADD SWAP1 POP SWAP2 SWAP1 POP JUMP JUMPDEST PUSH1 0x0 PUSH1 0x20 DUP3 ADD SWAP1 POP DUP2 DUP2 SUB PUSH1 0x0 DUP4 ADD MSTORE PUSH2 0x2752 DUP2 PUSH2 0x2716 JUMP JUMPDEST SWAP1 POP SWAP2 SWAP1 POP JUMP JUMPDEST PUSH1 0x0 PUSH1 0x40 DUP3 ADD SWAP1 POP PUSH2 0x276E PUSH1 0x0 DUP4 ADD DUP6 PUSH2 0x2056 JUMP JUMPDEST PUSH2 0x277B PUSH1 0x20 DUP4 ADD DUP5 PUSH2 0x2056 JUMP JUMPDEST SWAP4 SWAP3 POP POP POP JUMP JUMPDEST PUSH32 0x4661696C656420746F20637265617465206E6F6E2D66756E6769626C6520746F PUSH1 0x0 DUP3 ADD MSTORE PUSH32 0x6B656E0000000000000000000000000000000000000000000000000000000000 PUSH1 0x20 DUP3 ADD MSTORE POP JUMP JUMPDEST PUSH1 0x0 PUSH2 0x27DE PUSH1 0x23 DUP4 PUSH2 0x2141 JUMP JUMPDEST SWAP2 POP PUSH2 0x27E9 DUP3 PUSH2 0x2782 JUMP JUMPDEST PUSH1 0x40 DUP3 ADD SWAP1 POP SWAP2 SWAP1 POP JUMP JUMPDEST PUSH1 0x0 PUSH1 0x20 DUP3 ADD SWAP1 POP DUP2 DUP2 SUB PUSH1 0x0 DUP4 ADD MSTORE PUSH2 0x280D DUP2 PUSH2 0x27D1 JUMP JUMPDEST SWAP1 POP SWAP2 SWAP1 POP JUMP JUMPDEST PUSH1 0x0 DUP2 MLOAD SWAP1 POP PUSH2 0x2823 DUP2 PUSH2 0x1C17 JUMP JUMPDEST SWAP3 SWAP2 POP POP JUMP JUMPDEST PUSH1 0x0 DUP2 MLOAD SWAP1 POP PUSH2 0x2838 DUP2 PUSH2 0x15C6 JUMP JUMPDEST SWAP3 SWAP2 POP POP JUMP JUMPDEST PUSH1 0x0 PUSH1 0x60 DUP3 DUP5 SUB SLT ISZERO PUSH2 0x2854 JUMPI PUSH2 0x2853 PUSH2 0x18B1 JUMP JUMPDEST JUMPDEST PUSH2 0x285E PUSH1 0x60 PUSH2 0x1668 JUMP JUMPDEST SWAP1 POP PUSH1 0x0 PUSH2 0x286E DUP5 DUP3 DUP6 ADD PUSH2 0x2814 JUMP JUMPDEST PUSH1 0x0 DUP4 ADD MSTORE POP PUSH1 0x20 PUSH2 0x2882 DUP5 DUP3 DUP6 ADD PUSH2 0x2829 JUMP JUMPDEST PUSH1 0x20 DUP4 ADD MSTORE POP PUSH1 0x40 PUSH2 0x2896 DUP5 DUP3 DUP6 ADD PUSH2 0x2814 JUMP JUMPDEST PUSH1 0x40 DUP4 ADD MSTORE POP SWAP3 SWAP2 POP POP JUMP JUMPDEST PUSH1 0x0 DUP1 PUSH1 0x80 DUP4 DUP6 SUB SLT ISZERO PUSH2 0x28B9 JUMPI PUSH2 0x28B8 PUSH2 0x158A JUMP JUMPDEST JUMPDEST PUSH1 0x0 PUSH2 0x28C7 DUP6 DUP3 DUP7 ADD PUSH2 0x265C JUMP JUMPDEST SWAP3 POP POP PUSH1 0x20 PUSH2 0x28D8 DUP6 DUP3 DUP7 ADD PUSH2 0x283E JUMP JUMPDEST SWAP2 POP POP SWAP3 POP SWAP3 SWAP1 POP JUMP JUMPDEST PUSH1 0x0 DUP2 MLOAD SWAP1 POP PUSH2 0x28F1 DUP2 PUSH2 0x1968 JUMP JUMPDEST SWAP3 SWAP2 POP POP JUMP JUMPDEST PUSH1 0x0 DUP1 PUSH1 0x40 DUP4 DUP6 SUB SLT ISZERO PUSH2 0x290E JUMPI PUSH2 0x290D PUSH2 0x158A JUMP JUMPDEST JUMPDEST PUSH1 0x0 PUSH2 0x291C DUP6 DUP3 DUP7 ADD PUSH2 0x265C JUMP JUMPDEST SWAP3 POP POP PUSH1 0x20 PUSH2 0x292D DUP6 DUP3 DUP7 ADD PUSH2 0x28E2 JUMP JUMPDEST SWAP2 POP POP SWAP3 POP SWAP3 SWAP1 POP JUMP JUMPDEST PUSH1 0x0 PUSH8 0xFFFFFFFFFFFFFFFF DUP3 AND SWAP1 POP SWAP2 SWAP1 POP JUMP JUMPDEST PUSH2 0x2954 DUP2 PUSH2 0x2937 JUMP JUMPDEST DUP3 MSTORE POP POP JUMP JUMPDEST PUSH1 0x0 DUP2 MLOAD SWAP1 POP SWAP2 SWAP1 POP JUMP JUMPDEST PUSH1 0x0 DUP3 DUP3 MSTORE PUSH1 0x20 DUP3 ADD SWAP1 POP SWAP3 SWAP2 POP POP JUMP JUMPDEST PUSH1 0x0 DUP2 SWAP1 POP PUSH1 0x20 DUP3 ADD SWAP1 POP SWAP2 SWAP1 POP JUMP JUMPDEST PUSH1 0x0 PUSH2 0x2992 DUP4 DUP4 PUSH2 0x2310 JUMP JUMPDEST SWAP1 POP SWAP3 SWAP2 POP POP JUMP JUMPDEST PUSH1 0x0 PUSH1 0x20 DUP3 ADD SWAP1 POP SWAP2 SWAP1 POP JUMP JUMPDEST PUSH1 0x0 PUSH2 0x29B2 DUP3 PUSH2 0x295A JUMP JUMPDEST PUSH2 0x29BC DUP2 DUP6 PUSH2 0x2965 JUMP JUMPDEST SWAP4 POP DUP4 PUSH1 0x20 DUP3 MUL DUP6 ADD PUSH2 0x29CE DUP6 PUSH2 0x2976 JUMP JUMPDEST DUP1 PUSH1 0x0 JUMPDEST DUP6 DUP2 LT ISZERO PUSH2 0x2A0A JUMPI DUP5 DUP5 SUB DUP10 MSTORE DUP2 MLOAD PUSH2 0x29EB DUP6 DUP3 PUSH2 0x2986 JUMP JUMPDEST SWAP5 POP PUSH2 0x29F6 DUP4 PUSH2 0x299A JUMP JUMPDEST SWAP3 POP PUSH1 0x20 DUP11 ADD SWAP10 POP POP PUSH1 0x1 DUP2 ADD SWAP1 POP PUSH2 0x29D2 JUMP JUMPDEST POP DUP3 SWAP8 POP DUP8 SWAP6 POP POP POP POP POP POP SWAP3 SWAP2 POP POP JUMP JUMPDEST PUSH1 0x0 PUSH1 0x60 DUP3 ADD SWAP1 POP PUSH2 0x2A31 PUSH1 0x0 DUP4 ADD DUP7 PUSH2 0x2056 JUMP JUMPDEST PUSH2 0x2A3E PUSH1 0x20 DUP4 ADD DUP6 PUSH2 0x294B JUMP JUMPDEST DUP2 DUP2 SUB PUSH1 0x40 DUP4 ADD MSTORE PUSH2 0x2A50 DUP2 DUP5 PUSH2 0x29A7 JUMP JUMPDEST SWAP1 POP SWAP5 SWAP4 POP POP POP POP JUMP JUMPDEST PUSH2 0x2A63 DUP2 PUSH2 0x2937 JUMP JUMPDEST DUP2 EQ PUSH2 0x2A6E JUMPI PUSH1 0x0 DUP1 REVERT JUMPDEST POP JUMP JUMPDEST PUSH1 0x0 DUP2 MLOAD SWAP1 POP PUSH2 0x2A80 DUP2 PUSH2 0x2A5A JUMP JUMPDEST SWAP3 SWAP2 POP POP JUMP JUMPDEST PUSH1 0x0 PUSH8 0xFFFFFFFFFFFFFFFF DUP3 GT ISZERO PUSH2 0x2AA1 JUMPI PUSH2 0x2AA0 PUSH2 0x1608 JUMP JUMPDEST JUMPDEST PUSH1 0x20 DUP3 MUL SWAP1 POP PUSH1 0x20 DUP2 ADD SWAP1 POP SWAP2 SWAP1 POP JUMP JUMPDEST PUSH1 0x0 DUP2 MLOAD SWAP1 POP PUSH2 0x2AC1 DUP2 PUSH2 0x1994 JUMP JUMPDEST SWAP3 SWAP2 POP POP JUMP JUMPDEST PUSH1 0x0 PUSH2 0x2ADA PUSH2 0x2AD5 DUP5 PUSH2 0x2A86 JUMP JUMPDEST PUSH2 0x1668 JUMP JUMPDEST SWAP1 POP DUP1 DUP4 DUP3 MSTORE PUSH1 0x20 DUP3 ADD SWAP1 POP PUSH1 0x20 DUP5 MUL DUP4 ADD DUP6 DUP2 GT ISZERO PUSH2 0x2AFD JUMPI PUSH2 0x2AFC PUSH2 0x16AF JUMP JUMPDEST JUMPDEST DUP4 JUMPDEST DUP2 DUP2 LT ISZERO PUSH2 0x2B26 JUMPI DUP1 PUSH2 0x2B12 DUP9 DUP3 PUSH2 0x2AB2 JUMP JUMPDEST DUP5 MSTORE PUSH1 0x20 DUP5 ADD SWAP4 POP POP PUSH1 0x20 DUP2 ADD SWAP1 POP PUSH2 0x2AFF JUMP JUMPDEST POP POP POP SWAP4 SWAP3 POP POP POP JUMP JUMPDEST PUSH1 0x0 DUP3 PUSH1 0x1F DUP4 ADD SLT PUSH2 0x2B45 JUMPI PUSH2 0x2B44 PUSH2 0x15F2 JUMP JUMPDEST JUMPDEST DUP2 MLOAD PUSH2 0x2B55 DUP5 DUP3 PUSH1 0x20 DUP7 ADD PUSH2 0x2AC7 JUMP JUMPDEST SWAP2 POP POP SWAP3 SWAP2 POP POP JUMP JUMPDEST PUSH1 0x0 DUP1 PUSH1 0x0 PUSH1 0x60 DUP5 DUP7 SUB SLT ISZERO PUSH2 0x2B77 JUMPI PUSH2 0x2B76 PUSH2 0x158A JUMP JUMPDEST JUMPDEST PUSH1 0x0 PUSH2 0x2B85 DUP7 DUP3 DUP8 ADD PUSH2 0x265C JUMP JUMPDEST SWAP4 POP POP PUSH1 0x20 PUSH2 0x2B96 DUP7 DUP3 DUP8 ADD PUSH2 0x2A71 JUMP JUMPDEST SWAP3 POP POP PUSH1 0x40 DUP5 ADD MLOAD PUSH8 0xFFFFFFFFFFFFFFFF DUP2 GT ISZERO PUSH2 0x2BB7 JUMPI PUSH2 0x2BB6 PUSH2 0x158F JUMP JUMPDEST JUMPDEST PUSH2 0x2BC3 DUP7 DUP3 DUP8 ADD PUSH2 0x2B30 JUMP JUMPDEST SWAP2 POP POP SWAP3 POP SWAP3 POP SWAP3 JUMP JUMPDEST PUSH1 0x0 PUSH1 0x80 DUP3 ADD SWAP1 POP PUSH2 0x2BE2 PUSH1 0x0 DUP4 ADD DUP8 PUSH2 0x2056 JUMP JUMPDEST PUSH2 0x2BEF PUSH1 0x20 DUP4 ADD DUP7 PUSH2 0x2056 JUMP JUMPDEST PUSH2 0x2BFC PUSH1 0x40 DUP4 ADD DUP6 PUSH2 0x2056 JUMP JUMPDEST PUSH2 0x2C09 PUSH1 0x60 DUP4 ADD DUP5 PUSH2 0x1887 JUMP JUMPDEST SWAP6 SWAP5 POP POP POP POP POP JUMP JUMPDEST PUSH1 0x0 PUSH1 0x20 DUP3 ADD SWAP1 POP DUP2 DUP2 SUB PUSH1 0x0 DUP4 ADD MSTORE PUSH2 0x2C2C DUP2 DUP5 PUSH2 0x24DB JUMP JUMPDEST SWAP1 POP SWAP3 SWAP2 POP POP JUMP JUMPDEST PUSH1 0x0 PUSH2 0x2C3F DUP3 PUSH2 0x1594 JUMP JUMPDEST SWAP1 POP SWAP2 SWAP1 POP JUMP JUMPDEST PUSH2 0x2C4F DUP2 PUSH2 0x2C34 JUMP JUMPDEST DUP2 EQ PUSH2 0x2C5A JUMPI PUSH1 0x0 DUP1 REVERT JUMPDEST POP JUMP JUMPDEST PUSH1 0x0 DUP2 MLOAD SWAP1 POP PUSH2 0x2C6C DUP2 PUSH2 0x2C46 JUMP JUMPDEST SWAP3 SWAP2 POP POP JUMP JUMPDEST PUSH1 0x0 DUP1 PUSH1 0x40 DUP4 DUP6 SUB SLT ISZERO PUSH2 0x2C89 JUMPI PUSH2 0x2C88 PUSH2 0x158A JUMP JUMPDEST JUMPDEST PUSH1 0x0 PUSH2 0x2C97 DUP6 DUP3 DUP7 ADD PUSH2 0x265C JUMP JUMPDEST SWAP3 POP POP PUSH1 0x20 PUSH2 0x2CA8 DUP6 DUP3 DUP7 ADD PUSH2 0x2C5D JUMP JUMPDEST SWAP2 POP POP SWAP3 POP SWAP3 SWAP1 POP JUMP JUMPDEST PUSH32 0x4E487B7100000000000000000000000000000000000000000000000000000000 PUSH1 0x0 MSTORE PUSH1 0x21 PUSH1 0x4 MSTORE PUSH1 0x24 PUSH1 0x0 REVERT INVALID LOG2 PUSH5 0x6970667358 0x22 SLT KECCAK256 0xEE 0xC2 CHAINID PUSH22 0x73AD33940A1DF3F1810505ADFC6A181F7B2F959350D8 DUP7 SHL PUSH4 0x58814264 PUSH20 0x6F6C634300080800330000000000000000000000 "
		},
		"gasEstimates": {
			"creation": {
				"codeDepositCost": "2308600",
				"executionCost": "158191",
				"totalCost": "2466791"
			},
			"external": {
				"createNft(string,string,string,int64,uint32)": "infinite",
				"getTokenExpiryInfo(address)": "infinite",
				"grantTokenKyc(address,address)": "infinite",
				"isKyc(address,address)": "infinite",
				"mintNft(address,bytes[])": "infinite",
				"pauseToken(address)": "infinite",
				"revokeTokenKyc(address,address)": "infinite",
				"transferNft(address,address,int64)": "infinite",
				"unpauseToken(address)": "infinite",
				"updateTokenExpiryInfo(address,(uint32,address,uint32))": "infinite",
				"updateTokenInfo(address,(string,string,address,string,bool,int64,bool,(uint256,(bool,address,bytes,bytes,address))[],(uint32,address,uint32)))": "infinite"
			}
		},
		"methodIdentifiers": {
			"createNft(string,string,string,int64,uint32)": "c783fe25",
			"getTokenExpiryInfo(address)": "d614cdb8",
			"grantTokenKyc(address,address)": "8f8d7f99",
			"isKyc(address,address)": "f2c31ff4",
			"mintNft(address,bytes[])": "0a284cb6",
			"pauseToken(address)": "7c41ad2c",
			"revokeTokenKyc(address,address)": "af99c633",
			"transferNft(address,address,int64)": "82b562aa",
			"unpauseToken(address)": "3b3bff0f",
			"updateTokenExpiryInfo(address,(uint32,address,uint32))": "593d6e82",
			"updateTokenInfo(address,(string,string,address,string,bool,int64,bool,(uint256,(bool,address,bytes,bytes,address))[],(uint32,address,uint32)))": "18370d34"
		}
	},
	"abi": [
		{
			"inputs": [
				{
					"internalType": "string",
					"name": "name",
					"type": "string"
				},
				{
					"internalType": "string",
					"name": "symbol",
					"type": "string"
				},
				{
					"internalType": "string",
					"name": "memo",
					"type": "string"
				},
				{
					"internalType": "int64",
					"name": "maxSupply",
					"type": "int64"
				},
				{
					"internalType": "uint32",
					"name": "autoRenewPeriod",
					"type": "uint32"
				}
			],
			"name": "createNft",
			"outputs": [
				{
					"internalType": "address",
					"name": "",
					"type": "address"
				}
			],
			"stateMutability": "payable",
			"type": "function"
		},
		{
			"inputs": [
				{
					"internalType": "address",
					"name": "token",
					"type": "address"
				}
			],
			"name": "getTokenExpiryInfo",
			"outputs": [
				{
					"internalType": "int256",
					"name": "responseCode",
					"type": "int256"
				},
				{
					"components": [
						{
							"internalType": "uint32",
							"name": "second",
							"type": "uint32"
						},
						{
							"internalType": "address",
							"name": "autoRenewAccount",
							"type": "address"
						},
						{
							"internalType": "uint32",
							"name": "autoRenewPeriod",
							"type": "uint32"
						}
					],
					"internalType": "struct IHederaTokenService.Expiry",
					"name": "expiryInfo",
					"type": "tuple"
				}
			],
			"stateMutability": "nonpayable",
			"type": "function"
		},
		{
			"inputs": [
				{
					"internalType": "address",
					"name": "token",
					"type": "address"
				},
				{
					"internalType": "address",
					"name": "account",
					"type": "address"
				}
			],
			"name": "grantTokenKyc",
			"outputs": [
				{
					"internalType": "int64",
					"name": "responseCode",
					"type": "int64"
				}
			],
			"stateMutability": "nonpayable",
			"type": "function"
		},
		{
			"inputs": [
				{
					"internalType": "address",
					"name": "token",
					"type": "address"
				},
				{
					"internalType": "address",
					"name": "account",
					"type": "address"
				}
			],
			"name": "isKyc",
			"outputs": [
				{
					"internalType": "int64",
					"name": "responseCode",
					"type": "int64"
				},
				{
					"internalType": "bool",
					"name": "kycGranted",
					"type": "bool"
				}
			],
			"stateMutability": "nonpayable",
			"type": "function"
		},
		{
			"inputs": [
				{
					"internalType": "address",
					"name": "token",
					"type": "address"
				},
				{
					"internalType": "bytes[]",
					"name": "metadata",
					"type": "bytes[]"
				}
			],
			"name": "mintNft",
			"outputs": [
				{
					"internalType": "int64",
					"name": "",
					"type": "int64"
				}
			],
			"stateMutability": "nonpayable",
			"type": "function"
		},
		{
			"inputs": [
				{
					"internalType": "address",
					"name": "token",
					"type": "address"
				}
			],
			"name": "pauseToken",
			"outputs": [
				{
					"internalType": "int256",
					"name": "responseCode",
					"type": "int256"
				}
			],
			"stateMutability": "nonpayable",
			"type": "function"
		},
		{
			"inputs": [
				{
					"internalType": "address",
					"name": "token",
					"type": "address"
				},
				{
					"internalType": "address",
					"name": "account",
					"type": "address"
				}
			],
			"name": "revokeTokenKyc",
			"outputs": [
				{
					"internalType": "int64",
					"name": "responseCode",
					"type": "int64"
				}
			],
			"stateMutability": "nonpayable",
			"type": "function"
		},
		{
			"inputs": [
				{
					"internalType": "address",
					"name": "token",
					"type": "address"
				},
				{
					"internalType": "address",
					"name": "receiver",
					"type": "address"
				},
				{
					"internalType": "int64",
					"name": "serial",
					"type": "int64"
				}
			],
			"name": "transferNft",
			"outputs": [
				{
					"internalType": "int256",
					"name": "",
					"type": "int256"
				}
			],
			"stateMutability": "nonpayable",
			"type": "function"
		},
		{
			"inputs": [
				{
					"internalType": "address",
					"name": "token",
					"type": "address"
				}
			],
			"name": "unpauseToken",
			"outputs": [
				{
					"internalType": "int256",
					"name": "responseCode",
					"type": "int256"
				}
			],
			"stateMutability": "nonpayable",
			"type": "function"
		},
		{
			"inputs": [
				{
					"internalType": "address",
					"name": "token",
					"type": "address"
				},
				{
					"components": [
						{
							"internalType": "uint32",
							"name": "second",
							"type": "uint32"
						},
						{
							"internalType": "address",
							"name": "autoRenewAccount",
							"type": "address"
						},
						{
							"internalType": "uint32",
							"name": "autoRenewPeriod",
							"type": "uint32"
						}
					],
					"internalType": "struct IHederaTokenService.Expiry",
					"name": "expiryInfo",
					"type": "tuple"
				}
			],
			"name": "updateTokenExpiryInfo",
			"outputs": [
				{
					"internalType": "int256",
					"name": "responseCode",
					"type": "int256"
				}
			],
			"stateMutability": "nonpayable",
			"type": "function"
		},
		{
			"inputs": [
				{
					"internalType": "address",
					"name": "token",
					"type": "address"
				},
				{
					"components": [
						{
							"internalType": "string",
							"name": "name",
							"type": "string"
						},
						{
							"internalType": "string",
							"name": "symbol",
							"type": "string"
						},
						{
							"internalType": "address",
							"name": "treasury",
							"type": "address"
						},
						{
							"internalType": "string",
							"name": "memo",
							"type": "string"
						},
						{
							"internalType": "bool",
							"name": "tokenSupplyType",
							"type": "bool"
						},
						{
							"internalType": "int64",
							"name": "maxSupply",
							"type": "int64"
						},
						{
							"internalType": "bool",
							"name": "freezeDefault",
							"type": "bool"
						},
						{
							"components": [
								{
									"internalType": "uint256",
									"name": "keyType",
									"type": "uint256"
								},
								{
									"components": [
										{
											"internalType": "bool",
											"name": "inheritAccountKey",
											"type": "bool"
										},
										{
											"internalType": "address",
											"name": "contractId",
											"type": "address"
										},
										{
											"internalType": "bytes",
											"name": "ed25519",
											"type": "bytes"
										},
										{
											"internalType": "bytes",
											"name": "ECDSA_secp256k1",
											"type": "bytes"
										},
										{
											"internalType": "address",
											"name": "delegatableContractId",
											"type": "address"
										}
									],
									"internalType": "struct IHederaTokenService.KeyValue",
									"name": "key",
									"type": "tuple"
								}
							],
							"internalType": "struct IHederaTokenService.TokenKey[]",
							"name": "tokenKeys",
							"type": "tuple[]"
						},
						{
							"components": [
								{
									"internalType": "uint32",
									"name": "second",
									"type": "uint32"
								},
								{
									"internalType": "address",
									"name": "autoRenewAccount",
									"type": "address"
								},
								{
									"internalType": "uint32",
									"name": "autoRenewPeriod",
									"type": "uint32"
								}
							],
							"internalType": "struct IHederaTokenService.Expiry",
							"name": "expiry",
							"type": "tuple"
						}
					],
					"internalType": "struct IHederaTokenService.HederaToken",
					"name": "tokenInfo",
					"type": "tuple"
				}
			],
			"name": "updateTokenInfo",
			"outputs": [
				{
					"internalType": "int256",
					"name": "responseCode",
					"type": "int256"
				}
			],
			"stateMutability": "nonpayable",
			"type": "function"
		}
	]
}